{
	"contracts/SimpleContract.sol": {
		"SimpleContract": {
			"abi": [
				{
					"inputs": [],
					"stateMutability": "nonpayable",
					"type": "constructor"
				},
				{
					"inputs": [],
					"name": "Unauthorized",
					"type": "error"
				},
				{
					"anonymous": false,
					"inputs": [
						{
							"indexed": false,
							"internalType": "uint256",
							"name": "newNumber",
							"type": "uint256"
						}
					],
					"name": "NumberUpdated",
					"type": "event"
				},
				{
					"anonymous": false,
					"inputs": [
						{
							"indexed": false,
							"internalType": "enum SimpleContract.Status",
							"name": "newStatus",
							"type": "uint8"
						}
					],
					"name": "StatusChanged",
					"type": "event"
				},
				{
					"inputs": [],
					"name": "number",
					"outputs": [
						{
							"internalType": "uint256",
							"name": "",
							"type": "uint256"
						}
					],
					"stateMutability": "view",
					"type": "function"
				},
				{
					"inputs": [],
					"name": "owner",
					"outputs": [
						{
							"internalType": "address",
							"name": "",
							"type": "address"
						}
					],
					"stateMutability": "view",
					"type": "function"
				},
				{
					"inputs": [],
					"name": "person",
					"outputs": [
						{
							"internalType": "string",
							"name": "name",
							"type": "string"
						},
						{
							"internalType": "uint256",
							"name": "age",
							"type": "uint256"
						}
					],
					"stateMutability": "view",
					"type": "function"
				},
				{
					"inputs": [
						{
							"internalType": "uint256",
							"name": "_number",
							"type": "uint256"
						}
					],
					"name": "setNumber",
					"outputs": [],
					"stateMutability": "nonpayable",
					"type": "function"
				},
				{
					"inputs": [
						{
							"internalType": "string",
							"name": "_name",
							"type": "string"
						},
						{
							"internalType": "uint256",
							"name": "_age",
							"type": "uint256"
						}
					],
					"name": "setPerson",
					"outputs": [],
					"stateMutability": "nonpayable",
					"type": "function"
				},
				{
					"inputs": [
						{
							"internalType": "enum SimpleContract.Status",
							"name": "_status",
							"type": "uint8"
						}
					],
					"name": "setStatus",
					"outputs": [],
					"stateMutability": "nonpayable",
					"type": "function"
				},
				{
					"inputs": [],
					"name": "status",
					"outputs": [
						{
							"internalType": "enum SimpleContract.Status",
							"name": "",
							"type": "uint8"
						}
					],
					"stateMutability": "view",
					"type": "function"
				}
			],
			"devdoc": {
				"kind": "dev",
				"methods": {},
				"version": 1
			},
			"evm": {
				"assembly": "    /* \"contracts/SimpleContract.sol\":63:1156  contract SimpleContract {... */\n  mstore(0x40, 0x80)\n    /* \"contracts/SimpleContract.sol\":678:761  constructor() {... */\n  callvalue\n  dup1\n  iszero\n  tag_1\n  jumpi\n  0x00\n  dup1\n  revert\ntag_1:\n  pop\n    /* \"contracts/SimpleContract.sol\":710:720  msg.sender */\n  caller\n    /* \"contracts/SimpleContract.sol\":702:707  owner */\n  0x01\n  0x00\n    /* \"contracts/SimpleContract.sol\":702:720  owner = msg.sender */\n  0x0100\n  exp\n  dup2\n  sload\n  dup2\n  0xffffffffffffffffffffffffffffffffffffffff\n  mul\n  not\n  and\n  swap1\n  dup4\n  0xffffffffffffffffffffffffffffffffffffffff\n  and\n  mul\n  or\n  swap1\n  sstore\n  pop\n    /* \"contracts/SimpleContract.sol\":739:754  Status.Inactive */\n  0x00\n    /* \"contracts/SimpleContract.sol\":730:736  status */\n  0x01\n  0x14\n    /* \"contracts/SimpleContract.sol\":730:754  status = Status.Inactive */\n  0x0100\n  exp\n  dup2\n  sload\n  dup2\n  0xff\n  mul\n  not\n  and\n  swap1\n  dup4\n  0x02\n  dup2\n  gt\n  iszero\n  tag_4\n  jumpi\n  tag_5\n  tag_6\n  jump\t// in\ntag_5:\ntag_4:\n  mul\n  or\n  swap1\n  sstore\n  pop\n    /* \"contracts/SimpleContract.sol\":63:1156  contract SimpleContract {... */\n  jump(tag_7)\n    /* \"#utility.yul\":7:187   */\ntag_6:\n    /* \"#utility.yul\":55:132   */\n  0x4e487b7100000000000000000000000000000000000000000000000000000000\n    /* \"#utility.yul\":52:53   */\n  0x00\n    /* \"#utility.yul\":45:133   */\n  mstore\n    /* \"#utility.yul\":152:156   */\n  0x21\n    /* \"#utility.yul\":149:150   */\n  0x04\n    /* \"#utility.yul\":142:157   */\n  mstore\n    /* \"#utility.yul\":176:180   */\n  0x24\n    /* \"#utility.yul\":173:174   */\n  0x00\n    /* \"#utility.yul\":166:181   */\n  revert\n    /* \"contracts/SimpleContract.sol\":63:1156  contract SimpleContract {... */\ntag_7:\n  dataSize(sub_0)\n  dup1\n  dataOffset(sub_0)\n  0x00\n  codecopy\n  0x00\n  return\nstop\n\nsub_0: assembly {\n        /* \"contracts/SimpleContract.sol\":63:1156  contract SimpleContract {... */\n      mstore(0x40, 0x80)\n      callvalue\n      dup1\n      iszero\n      tag_1\n      jumpi\n      0x00\n      dup1\n      revert\n    tag_1:\n      pop\n      jumpi(tag_2, lt(calldatasize, 0x04))\n      shr(0xe0, calldataload(0x00))\n      dup1\n      0x3fb5c1cb\n      gt\n      tag_10\n      jumpi\n      dup1\n      0x3fb5c1cb\n      eq\n      tag_6\n      jumpi\n      dup1\n      0x77ec2b55\n      eq\n      tag_7\n      jumpi\n      dup1\n      0x8381f58a\n      eq\n      tag_8\n      jumpi\n      dup1\n      0x8da5cb5b\n      eq\n      tag_9\n      jumpi\n      jump(tag_2)\n    tag_10:\n      dup1\n      0x200d2ed2\n      eq\n      tag_3\n      jumpi\n      dup1\n      0x2e49d78b\n      eq\n      tag_4\n      jumpi\n      dup1\n      0x2fda437e\n      eq\n      tag_5\n      jumpi\n    tag_2:\n      0x00\n      dup1\n      revert\n        /* \"contracts/SimpleContract.sol\":227:247  Status public status */\n    tag_3:\n      tag_11\n      tag_12\n      jump\t// in\n    tag_11:\n      mload(0x40)\n      tag_13\n      swap2\n      swap1\n      tag_14\n      jump\t// in\n    tag_13:\n      mload(0x40)\n      dup1\n      swap2\n      sub\n      swap1\n      return\n        /* \"contracts/SimpleContract.sol\":910:1032  function setStatus(Status _status) public onlyOwner {... */\n    tag_4:\n      tag_15\n      0x04\n      dup1\n      calldatasize\n      sub\n      dup2\n      add\n      swap1\n      tag_16\n      swap2\n      swap1\n      tag_17\n      jump\t// in\n    tag_16:\n      tag_18\n      jump\t// in\n    tag_15:\n      stop\n        /* \"contracts/SimpleContract.sol\":1038:1154  function setPerson(string memory _name, uint256 _age) public onlyOwner {... */\n    tag_5:\n      tag_19\n      0x04\n      dup1\n      calldatasize\n      sub\n      dup2\n      add\n      swap1\n      tag_20\n      swap2\n      swap1\n      tag_21\n      jump\t// in\n    tag_20:\n      tag_22\n      jump\t// in\n    tag_19:\n      stop\n        /* \"contracts/SimpleContract.sol\":781:904  function setNumber(uint256 _number) public onlyOwner {... */\n    tag_6:\n      tag_23\n      0x04\n      dup1\n      calldatasize\n      sub\n      dup2\n      add\n      swap1\n      tag_24\n      swap2\n      swap1\n      tag_25\n      jump\t// in\n    tag_24:\n      tag_26\n      jump\t// in\n    tag_23:\n      stop\n        /* \"contracts/SimpleContract.sol\":340:360  Person public person */\n    tag_7:\n      tag_27\n      tag_28\n      jump\t// in\n    tag_27:\n      mload(0x40)\n      tag_29\n      swap3\n      swap2\n      swap1\n      tag_30\n      jump\t// in\n    tag_29:\n      mload(0x40)\n      dup1\n      swap2\n      sub\n      swap1\n      return\n        /* \"contracts/SimpleContract.sol\":113:134  uint256 public number */\n    tag_8:\n      tag_31\n      tag_32\n      jump\t// in\n    tag_31:\n      mload(0x40)\n      tag_33\n      swap2\n      swap1\n      tag_34\n      jump\t// in\n    tag_33:\n      mload(0x40)\n      dup1\n      swap2\n      sub\n      swap1\n      return\n        /* \"contracts/SimpleContract.sol\":140:160  address public owner */\n    tag_9:\n      tag_35\n      tag_36\n      jump\t// in\n    tag_35:\n      mload(0x40)\n      tag_37\n      swap2\n      swap1\n      tag_38\n      jump\t// in\n    tag_37:\n      mload(0x40)\n      dup1\n      swap2\n      sub\n      swap1\n      return\n        /* \"contracts/SimpleContract.sol\":227:247  Status public status */\n    tag_12:\n      0x01\n      0x14\n      swap1\n      sload\n      swap1\n      0x0100\n      exp\n      swap1\n      div\n      0xff\n      and\n      dup2\n      jump\t// out\n        /* \"contracts/SimpleContract.sol\":910:1032  function setStatus(Status _status) public onlyOwner {... */\n    tag_18:\n        /* \"contracts/SimpleContract.sol\":582:587  owner */\n      0x01\n      0x00\n      swap1\n      sload\n      swap1\n      0x0100\n      exp\n      swap1\n      div\n      0xffffffffffffffffffffffffffffffffffffffff\n      and\n        /* \"contracts/SimpleContract.sol\":568:587  msg.sender != owner */\n      0xffffffffffffffffffffffffffffffffffffffff\n      and\n        /* \"contracts/SimpleContract.sol\":568:578  msg.sender */\n      caller\n        /* \"contracts/SimpleContract.sol\":568:587  msg.sender != owner */\n      0xffffffffffffffffffffffffffffffffffffffff\n      and\n      eq\n        /* \"contracts/SimpleContract.sol\":564:635  if (msg.sender != owner) {... */\n      tag_40\n      jumpi\n        /* \"contracts/SimpleContract.sol\":610:624  Unauthorized() */\n      mload(0x40)\n      0x82b4290000000000000000000000000000000000000000000000000000000000\n      dup2\n      mstore\n      0x04\n      add\n      mload(0x40)\n      dup1\n      swap2\n      sub\n      swap1\n      revert\n        /* \"contracts/SimpleContract.sol\":564:635  if (msg.sender != owner) {... */\n    tag_40:\n        /* \"contracts/SimpleContract.sol\":981:988  _status */\n      dup1\n        /* \"contracts/SimpleContract.sol\":972:978  status */\n      0x01\n      0x14\n        /* \"contracts/SimpleContract.sol\":972:988  status = _status */\n      0x0100\n      exp\n      dup2\n      sload\n      dup2\n      0xff\n      mul\n      not\n      and\n      swap1\n      dup4\n      0x02\n      dup2\n      gt\n      iszero\n      tag_42\n      jumpi\n      tag_43\n      tag_44\n      jump\t// in\n    tag_43:\n    tag_42:\n      mul\n      or\n      swap1\n      sstore\n      pop\n        /* \"contracts/SimpleContract.sol\":1003:1025  StatusChanged(_status) */\n      0xafa725e7f44cadb687a7043853fa1a7e7b8f0da74ce87ec546e9420f04da8c1e\n        /* \"contracts/SimpleContract.sol\":1017:1024  _status */\n      dup2\n        /* \"contracts/SimpleContract.sol\":1003:1025  StatusChanged(_status) */\n      mload(0x40)\n      tag_45\n      swap2\n      swap1\n      tag_14\n      jump\t// in\n    tag_45:\n      mload(0x40)\n      dup1\n      swap2\n      sub\n      swap1\n      log1\n        /* \"contracts/SimpleContract.sol\":910:1032  function setStatus(Status _status) public onlyOwner {... */\n      pop\n      jump\t// out\n        /* \"contracts/SimpleContract.sol\":1038:1154  function setPerson(string memory _name, uint256 _age) public onlyOwner {... */\n    tag_22:\n        /* \"contracts/SimpleContract.sol\":582:587  owner */\n      0x01\n      0x00\n      swap1\n      sload\n      swap1\n      0x0100\n      exp\n      swap1\n      div\n      0xffffffffffffffffffffffffffffffffffffffff\n      and\n        /* \"contracts/SimpleContract.sol\":568:587  msg.sender != owner */\n      0xffffffffffffffffffffffffffffffffffffffff\n      and\n        /* \"contracts/SimpleContract.sol\":568:578  msg.sender */\n      caller\n        /* \"contracts/SimpleContract.sol\":568:587  msg.sender != owner */\n      0xffffffffffffffffffffffffffffffffffffffff\n      and\n      eq\n        /* \"contracts/SimpleContract.sol\":564:635  if (msg.sender != owner) {... */\n      tag_47\n      jumpi\n        /* \"contracts/SimpleContract.sol\":610:624  Unauthorized() */\n      mload(0x40)\n      0x82b4290000000000000000000000000000000000000000000000000000000000\n      dup2\n      mstore\n      0x04\n      add\n      mload(0x40)\n      dup1\n      swap2\n      sub\n      swap1\n      revert\n        /* \"contracts/SimpleContract.sol\":564:635  if (msg.sender != owner) {... */\n    tag_47:\n        /* \"contracts/SimpleContract.sol\":1128:1147  Person(_name, _age) */\n      mload(0x40)\n      dup1\n      0x40\n      add\n      0x40\n      mstore\n      dup1\n        /* \"contracts/SimpleContract.sol\":1135:1140  _name */\n      dup4\n        /* \"contracts/SimpleContract.sol\":1128:1147  Person(_name, _age) */\n      dup2\n      mstore\n      0x20\n      add\n        /* \"contracts/SimpleContract.sol\":1142:1146  _age */\n      dup3\n        /* \"contracts/SimpleContract.sol\":1128:1147  Person(_name, _age) */\n      dup2\n      mstore\n      pop\n        /* \"contracts/SimpleContract.sol\":1119:1125  person */\n      0x02\n        /* \"contracts/SimpleContract.sol\":1119:1147  person = Person(_name, _age) */\n      0x00\n      dup3\n      add\n      mload\n      dup2\n      0x00\n      add\n      swap1\n      dup2\n      tag_49\n      swap2\n      swap1\n      tag_50\n      jump\t// in\n    tag_49:\n      pop\n      0x20\n      dup3\n      add\n      mload\n      dup2\n      0x01\n      add\n      sstore\n      swap1\n      pop\n      pop\n        /* \"contracts/SimpleContract.sol\":1038:1154  function setPerson(string memory _name, uint256 _age) public onlyOwner {... */\n      pop\n      pop\n      jump\t// out\n        /* \"contracts/SimpleContract.sol\":781:904  function setNumber(uint256 _number) public onlyOwner {... */\n    tag_26:\n        /* \"contracts/SimpleContract.sol\":582:587  owner */\n      0x01\n      0x00\n      swap1\n      sload\n      swap1\n      0x0100\n      exp\n      swap1\n      div\n      0xffffffffffffffffffffffffffffffffffffffff\n      and\n        /* \"contracts/SimpleContract.sol\":568:587  msg.sender != owner */\n      0xffffffffffffffffffffffffffffffffffffffff\n      and\n        /* \"contracts/SimpleContract.sol\":568:578  msg.sender */\n      caller\n        /* \"contracts/SimpleContract.sol\":568:587  msg.sender != owner */\n      0xffffffffffffffffffffffffffffffffffffffff\n      and\n      eq\n        /* \"contracts/SimpleContract.sol\":564:635  if (msg.sender != owner) {... */\n      tag_52\n      jumpi\n        /* \"contracts/SimpleContract.sol\":610:624  Unauthorized() */\n      mload(0x40)\n      0x82b4290000000000000000000000000000000000000000000000000000000000\n      dup2\n      mstore\n      0x04\n      add\n      mload(0x40)\n      dup1\n      swap2\n      sub\n      swap1\n      revert\n        /* \"contracts/SimpleContract.sol\":564:635  if (msg.sender != owner) {... */\n    tag_52:\n        /* \"contracts/SimpleContract.sol\":853:860  _number */\n      dup1\n        /* \"contracts/SimpleContract.sol\":844:850  number */\n      0x00\n        /* \"contracts/SimpleContract.sol\":844:860  number = _number */\n      dup2\n      swap1\n      sstore\n      pop\n        /* \"contracts/SimpleContract.sol\":875:897  NumberUpdated(_number) */\n      0x939f2783f4b99373bd9b6912aff8f7316ea141b98eb02e47c8a96bdae0d654b3\n        /* \"contracts/SimpleContract.sol\":889:896  _number */\n      dup2\n        /* \"contracts/SimpleContract.sol\":875:897  NumberUpdated(_number) */\n      mload(0x40)\n      tag_54\n      swap2\n      swap1\n      tag_34\n      jump\t// in\n    tag_54:\n      mload(0x40)\n      dup1\n      swap2\n      sub\n      swap1\n      log1\n        /* \"contracts/SimpleContract.sol\":781:904  function setNumber(uint256 _number) public onlyOwner {... */\n      pop\n      jump\t// out\n        /* \"contracts/SimpleContract.sol\":340:360  Person public person */\n    tag_28:\n      0x02\n      dup1\n      0x00\n      add\n      dup1\n      sload\n      tag_55\n      swap1\n      tag_56\n      jump\t// in\n    tag_55:\n      dup1\n      0x1f\n      add\n      0x20\n      dup1\n      swap2\n      div\n      mul\n      0x20\n      add\n      mload(0x40)\n      swap1\n      dup2\n      add\n      0x40\n      mstore\n      dup1\n      swap3\n      swap2\n      swap1\n      dup2\n      dup2\n      mstore\n      0x20\n      add\n      dup3\n      dup1\n      sload\n      tag_57\n      swap1\n      tag_56\n      jump\t// in\n    tag_57:\n      dup1\n      iszero\n      tag_58\n      jumpi\n      dup1\n      0x1f\n      lt\n      tag_59\n      jumpi\n      0x0100\n      dup1\n      dup4\n      sload\n      div\n      mul\n      dup4\n      mstore\n      swap2\n      0x20\n      add\n      swap2\n      jump(tag_58)\n    tag_59:\n      dup3\n      add\n      swap2\n      swap1\n      0x00\n      mstore\n      keccak256(0x00, 0x20)\n      swap1\n    tag_60:\n      dup2\n      sload\n      dup2\n      mstore\n      swap1\n      0x01\n      add\n      swap1\n      0x20\n      add\n      dup1\n      dup4\n      gt\n      tag_60\n      jumpi\n      dup3\n      swap1\n      sub\n      0x1f\n      and\n      dup3\n      add\n      swap2\n    tag_58:\n      pop\n      pop\n      pop\n      pop\n      pop\n      swap1\n      dup1\n      0x01\n      add\n      sload\n      swap1\n      pop\n      dup3\n      jump\t// out\n        /* \"contracts/SimpleContract.sol\":113:134  uint256 public number */\n    tag_32:\n      sload(0x00)\n      dup2\n      jump\t// out\n        /* \"contracts/SimpleContract.sol\":140:160  address public owner */\n    tag_36:\n      0x01\n      0x00\n      swap1\n      sload\n      swap1\n      0x0100\n      exp\n      swap1\n      div\n      0xffffffffffffffffffffffffffffffffffffffff\n      and\n      dup2\n      jump\t// out\n        /* \"#utility.yul\":7:187   */\n    tag_44:\n        /* \"#utility.yul\":55:132   */\n      0x4e487b7100000000000000000000000000000000000000000000000000000000\n        /* \"#utility.yul\":52:53   */\n      0x00\n        /* \"#utility.yul\":45:133   */\n      mstore\n        /* \"#utility.yul\":152:156   */\n      0x21\n        /* \"#utility.yul\":149:150   */\n      0x04\n        /* \"#utility.yul\":142:157   */\n      mstore\n        /* \"#utility.yul\":176:180   */\n      0x24\n        /* \"#utility.yul\":173:174   */\n      0x00\n        /* \"#utility.yul\":166:181   */\n      revert\n        /* \"#utility.yul\":193:306   */\n    tag_61:\n        /* \"#utility.yul\":274:275   */\n      0x03\n        /* \"#utility.yul\":267:272   */\n      dup2\n        /* \"#utility.yul\":264:276   */\n      lt\n        /* \"#utility.yul\":254:300   */\n      tag_110\n      jumpi\n        /* \"#utility.yul\":280:298   */\n      tag_111\n      tag_44\n      jump\t// in\n    tag_111:\n        /* \"#utility.yul\":254:300   */\n    tag_110:\n        /* \"#utility.yul\":193:306   */\n      pop\n      jump\t// out\n        /* \"#utility.yul\":312:439   */\n    tag_62:\n        /* \"#utility.yul\":357:364   */\n      0x00\n        /* \"#utility.yul\":386:391   */\n      dup2\n        /* \"#utility.yul\":375:391   */\n      swap1\n      pop\n        /* \"#utility.yul\":392:433   */\n      tag_113\n        /* \"#utility.yul\":427:432   */\n      dup3\n        /* \"#utility.yul\":392:433   */\n      tag_61\n      jump\t// in\n    tag_113:\n        /* \"#utility.yul\":312:439   */\n      swap2\n      swap1\n      pop\n      jump\t// out\n        /* \"#utility.yul\":445:572   */\n    tag_63:\n        /* \"#utility.yul\":501:510   */\n      0x00\n        /* \"#utility.yul\":534:566   */\n      tag_115\n        /* \"#utility.yul\":560:565   */\n      dup3\n        /* \"#utility.yul\":534:566   */\n      tag_62\n      jump\t// in\n    tag_115:\n        /* \"#utility.yul\":521:566   */\n      swap1\n      pop\n        /* \"#utility.yul\":445:572   */\n      swap2\n      swap1\n      pop\n      jump\t// out\n        /* \"#utility.yul\":578:721   */\n    tag_64:\n        /* \"#utility.yul\":671:714   */\n      tag_117\n        /* \"#utility.yul\":708:713   */\n      dup2\n        /* \"#utility.yul\":671:714   */\n      tag_63\n      jump\t// in\n    tag_117:\n        /* \"#utility.yul\":666:669   */\n      dup3\n        /* \"#utility.yul\":659:715   */\n      mstore\n        /* \"#utility.yul\":578:721   */\n      pop\n      pop\n      jump\t// out\n        /* \"#utility.yul\":727:961   */\n    tag_14:\n        /* \"#utility.yul\":826:830   */\n      0x00\n        /* \"#utility.yul\":864:866   */\n      0x20\n        /* \"#utility.yul\":853:862   */\n      dup3\n        /* \"#utility.yul\":849:867   */\n      add\n        /* \"#utility.yul\":841:867   */\n      swap1\n      pop\n        /* \"#utility.yul\":877:954   */\n      tag_119\n        /* \"#utility.yul\":951:952   */\n      0x00\n        /* \"#utility.yul\":940:949   */\n      dup4\n        /* \"#utility.yul\":936:953   */\n      add\n        /* \"#utility.yul\":927:933   */\n      dup5\n        /* \"#utility.yul\":877:954   */\n      tag_64\n      jump\t// in\n    tag_119:\n        /* \"#utility.yul\":727:961   */\n      swap3\n      swap2\n      pop\n      pop\n      jump\t// out\n        /* \"#utility.yul\":967:1042   */\n    tag_65:\n        /* \"#utility.yul\":1000:1006   */\n      0x00\n        /* \"#utility.yul\":1033:1035   */\n      0x40\n        /* \"#utility.yul\":1027:1036   */\n      mload\n        /* \"#utility.yul\":1017:1036   */\n      swap1\n      pop\n        /* \"#utility.yul\":967:1042   */\n      swap1\n      jump\t// out\n        /* \"#utility.yul\":1048:1165   */\n    tag_66:\n        /* \"#utility.yul\":1157:1158   */\n      0x00\n        /* \"#utility.yul\":1154:1155   */\n      dup1\n        /* \"#utility.yul\":1147:1159   */\n      revert\n        /* \"#utility.yul\":1171:1288   */\n    tag_67:\n        /* \"#utility.yul\":1280:1281   */\n      0x00\n        /* \"#utility.yul\":1277:1278   */\n      dup1\n        /* \"#utility.yul\":1270:1282   */\n      revert\n        /* \"#utility.yul\":1294:1401   */\n    tag_68:\n        /* \"#utility.yul\":1375:1376   */\n      0x03\n        /* \"#utility.yul\":1368:1373   */\n      dup2\n        /* \"#utility.yul\":1365:1377   */\n      lt\n        /* \"#utility.yul\":1355:1395   */\n      tag_124\n      jumpi\n        /* \"#utility.yul\":1391:1392   */\n      0x00\n        /* \"#utility.yul\":1388:1389   */\n      dup1\n        /* \"#utility.yul\":1381:1393   */\n      revert\n        /* \"#utility.yul\":1355:1395   */\n    tag_124:\n        /* \"#utility.yul\":1294:1401   */\n      pop\n      jump\t// out\n        /* \"#utility.yul\":1407:1562   */\n    tag_69:\n        /* \"#utility.yul\":1461:1466   */\n      0x00\n        /* \"#utility.yul\":1499:1505   */\n      dup2\n        /* \"#utility.yul\":1486:1506   */\n      calldataload\n        /* \"#utility.yul\":1477:1506   */\n      swap1\n      pop\n        /* \"#utility.yul\":1515:1556   */\n      tag_126\n        /* \"#utility.yul\":1550:1555   */\n      dup2\n        /* \"#utility.yul\":1515:1556   */\n      tag_68\n      jump\t// in\n    tag_126:\n        /* \"#utility.yul\":1407:1562   */\n      swap3\n      swap2\n      pop\n      pop\n      jump\t// out\n        /* \"#utility.yul\":1568:1913   */\n    tag_17:\n        /* \"#utility.yul\":1635:1641   */\n      0x00\n        /* \"#utility.yul\":1684:1686   */\n      0x20\n        /* \"#utility.yul\":1672:1681   */\n      dup3\n        /* \"#utility.yul\":1663:1670   */\n      dup5\n        /* \"#utility.yul\":1659:1682   */\n      sub\n        /* \"#utility.yul\":1655:1687   */\n      slt\n        /* \"#utility.yul\":1652:1771   */\n      iszero\n      tag_128\n      jumpi\n        /* \"#utility.yul\":1690:1769   */\n      tag_129\n      tag_66\n      jump\t// in\n    tag_129:\n        /* \"#utility.yul\":1652:1771   */\n    tag_128:\n        /* \"#utility.yul\":1810:1811   */\n      0x00\n        /* \"#utility.yul\":1835:1896   */\n      tag_130\n        /* \"#utility.yul\":1888:1895   */\n      dup5\n        /* \"#utility.yul\":1879:1885   */\n      dup3\n        /* \"#utility.yul\":1868:1877   */\n      dup6\n        /* \"#utility.yul\":1864:1886   */\n      add\n        /* \"#utility.yul\":1835:1896   */\n      tag_69\n      jump\t// in\n    tag_130:\n        /* \"#utility.yul\":1825:1896   */\n      swap2\n      pop\n        /* \"#utility.yul\":1781:1906   */\n      pop\n        /* \"#utility.yul\":1568:1913   */\n      swap3\n      swap2\n      pop\n      pop\n      jump\t// out\n        /* \"#utility.yul\":1919:2036   */\n    tag_70:\n        /* \"#utility.yul\":2028:2029   */\n      0x00\n        /* \"#utility.yul\":2025:2026   */\n      dup1\n        /* \"#utility.yul\":2018:2030   */\n      revert\n        /* \"#utility.yul\":2042:2159   */\n    tag_71:\n        /* \"#utility.yul\":2151:2152   */\n      0x00\n        /* \"#utility.yul\":2148:2149   */\n      dup1\n        /* \"#utility.yul\":2141:2153   */\n      revert\n        /* \"#utility.yul\":2165:2267   */\n    tag_72:\n        /* \"#utility.yul\":2206:2212   */\n      0x00\n        /* \"#utility.yul\":2257:2259   */\n      0x1f\n        /* \"#utility.yul\":2253:2260   */\n      not\n        /* \"#utility.yul\":2248:2250   */\n      0x1f\n        /* \"#utility.yul\":2241:2246   */\n      dup4\n        /* \"#utility.yul\":2237:2251   */\n      add\n        /* \"#utility.yul\":2233:2261   */\n      and\n        /* \"#utility.yul\":2223:2261   */\n      swap1\n      pop\n        /* \"#utility.yul\":2165:2267   */\n      swap2\n      swap1\n      pop\n      jump\t// out\n        /* \"#utility.yul\":2273:2453   */\n    tag_73:\n        /* \"#utility.yul\":2321:2398   */\n      0x4e487b7100000000000000000000000000000000000000000000000000000000\n        /* \"#utility.yul\":2318:2319   */\n      0x00\n        /* \"#utility.yul\":2311:2399   */\n      mstore\n        /* \"#utility.yul\":2418:2422   */\n      0x41\n        /* \"#utility.yul\":2415:2416   */\n      0x04\n        /* \"#utility.yul\":2408:2423   */\n      mstore\n        /* \"#utility.yul\":2442:2446   */\n      0x24\n        /* \"#utility.yul\":2439:2440   */\n      0x00\n        /* \"#utility.yul\":2432:2447   */\n      revert\n        /* \"#utility.yul\":2459:2740   */\n    tag_74:\n        /* \"#utility.yul\":2542:2569   */\n      tag_136\n        /* \"#utility.yul\":2564:2568   */\n      dup3\n        /* \"#utility.yul\":2542:2569   */\n      tag_72\n      jump\t// in\n    tag_136:\n        /* \"#utility.yul\":2534:2540   */\n      dup2\n        /* \"#utility.yul\":2530:2570   */\n      add\n        /* \"#utility.yul\":2672:2678   */\n      dup2\n        /* \"#utility.yul\":2660:2670   */\n      dup2\n        /* \"#utility.yul\":2657:2679   */\n      lt\n        /* \"#utility.yul\":2636:2654   */\n      0xffffffffffffffff\n        /* \"#utility.yul\":2624:2634   */\n      dup3\n        /* \"#utility.yul\":2621:2655   */\n      gt\n        /* \"#utility.yul\":2618:2680   */\n      or\n        /* \"#utility.yul\":2615:2703   */\n      iszero\n      tag_137\n      jumpi\n        /* \"#utility.yul\":2683:2701   */\n      tag_138\n      tag_73\n      jump\t// in\n    tag_138:\n        /* \"#utility.yul\":2615:2703   */\n    tag_137:\n        /* \"#utility.yul\":2723:2733   */\n      dup1\n        /* \"#utility.yul\":2719:2721   */\n      0x40\n        /* \"#utility.yul\":2712:2734   */\n      mstore\n        /* \"#utility.yul\":2502:2740   */\n      pop\n        /* \"#utility.yul\":2459:2740   */\n      pop\n      pop\n      jump\t// out\n        /* \"#utility.yul\":2746:2875   */\n    tag_75:\n        /* \"#utility.yul\":2780:2786   */\n      0x00\n        /* \"#utility.yul\":2807:2827   */\n      tag_140\n      tag_65\n      jump\t// in\n    tag_140:\n        /* \"#utility.yul\":2797:2827   */\n      swap1\n      pop\n        /* \"#utility.yul\":2836:2869   */\n      tag_141\n        /* \"#utility.yul\":2864:2868   */\n      dup3\n        /* \"#utility.yul\":2856:2862   */\n      dup3\n        /* \"#utility.yul\":2836:2869   */\n      tag_74\n      jump\t// in\n    tag_141:\n        /* \"#utility.yul\":2746:2875   */\n      swap2\n      swap1\n      pop\n      jump\t// out\n        /* \"#utility.yul\":2881:3189   */\n    tag_76:\n        /* \"#utility.yul\":2943:2947   */\n      0x00\n        /* \"#utility.yul\":3033:3051   */\n      0xffffffffffffffff\n        /* \"#utility.yul\":3025:3031   */\n      dup3\n        /* \"#utility.yul\":3022:3052   */\n      gt\n        /* \"#utility.yul\":3019:3075   */\n      iszero\n      tag_143\n      jumpi\n        /* \"#utility.yul\":3055:3073   */\n      tag_144\n      tag_73\n      jump\t// in\n    tag_144:\n        /* \"#utility.yul\":3019:3075   */\n    tag_143:\n        /* \"#utility.yul\":3093:3122   */\n      tag_145\n        /* \"#utility.yul\":3115:3121   */\n      dup3\n        /* \"#utility.yul\":3093:3122   */\n      tag_72\n      jump\t// in\n    tag_145:\n        /* \"#utility.yul\":3085:3122   */\n      swap1\n      pop\n        /* \"#utility.yul\":3177:3181   */\n      0x20\n        /* \"#utility.yul\":3171:3175   */\n      dup2\n        /* \"#utility.yul\":3167:3182   */\n      add\n        /* \"#utility.yul\":3159:3182   */\n      swap1\n      pop\n        /* \"#utility.yul\":2881:3189   */\n      swap2\n      swap1\n      pop\n      jump\t// out\n        /* \"#utility.yul\":3195:3343   */\n    tag_77:\n        /* \"#utility.yul\":3293:3299   */\n      dup3\n        /* \"#utility.yul\":3288:3291   */\n      dup2\n        /* \"#utility.yul\":3283:3286   */\n      dup4\n        /* \"#utility.yul\":3270:3300   */\n      calldatacopy\n        /* \"#utility.yul\":3334:3335   */\n      0x00\n        /* \"#utility.yul\":3325:3331   */\n      dup4\n        /* \"#utility.yul\":3320:3323   */\n      dup4\n        /* \"#utility.yul\":3316:3332   */\n      add\n        /* \"#utility.yul\":3309:3336   */\n      mstore\n        /* \"#utility.yul\":3195:3343   */\n      pop\n      pop\n      pop\n      jump\t// out\n        /* \"#utility.yul\":3349:3774   */\n    tag_78:\n        /* \"#utility.yul\":3427:3432   */\n      0x00\n        /* \"#utility.yul\":3452:3518   */\n      tag_148\n        /* \"#utility.yul\":3468:3517   */\n      tag_149\n        /* \"#utility.yul\":3510:3516   */\n      dup5\n        /* \"#utility.yul\":3468:3517   */\n      tag_76\n      jump\t// in\n    tag_149:\n        /* \"#utility.yul\":3452:3518   */\n      tag_75\n      jump\t// in\n    tag_148:\n        /* \"#utility.yul\":3443:3518   */\n      swap1\n      pop\n        /* \"#utility.yul\":3541:3547   */\n      dup3\n        /* \"#utility.yul\":3534:3539   */\n      dup2\n        /* \"#utility.yul\":3527:3548   */\n      mstore\n        /* \"#utility.yul\":3579:3583   */\n      0x20\n        /* \"#utility.yul\":3572:3577   */\n      dup2\n        /* \"#utility.yul\":3568:3584   */\n      add\n        /* \"#utility.yul\":3617:3620   */\n      dup5\n        /* \"#utility.yul\":3608:3614   */\n      dup5\n        /* \"#utility.yul\":3603:3606   */\n      dup5\n        /* \"#utility.yul\":3599:3615   */\n      add\n        /* \"#utility.yul\":3596:3621   */\n      gt\n        /* \"#utility.yul\":3593:3705   */\n      iszero\n      tag_150\n      jumpi\n        /* \"#utility.yul\":3624:3703   */\n      tag_151\n      tag_71\n      jump\t// in\n    tag_151:\n        /* \"#utility.yul\":3593:3705   */\n    tag_150:\n        /* \"#utility.yul\":3714:3768   */\n      tag_152\n        /* \"#utility.yul\":3761:3767   */\n      dup5\n        /* \"#utility.yul\":3756:3759   */\n      dup3\n        /* \"#utility.yul\":3751:3754   */\n      dup6\n        /* \"#utility.yul\":3714:3768   */\n      tag_77\n      jump\t// in\n    tag_152:\n        /* \"#utility.yul\":3433:3774   */\n      pop\n        /* \"#utility.yul\":3349:3774   */\n      swap4\n      swap3\n      pop\n      pop\n      pop\n      jump\t// out\n        /* \"#utility.yul\":3794:4134   */\n    tag_79:\n        /* \"#utility.yul\":3850:3855   */\n      0x00\n        /* \"#utility.yul\":3899:3902   */\n      dup3\n        /* \"#utility.yul\":3892:3896   */\n      0x1f\n        /* \"#utility.yul\":3884:3890   */\n      dup4\n        /* \"#utility.yul\":3880:3897   */\n      add\n        /* \"#utility.yul\":3876:3903   */\n      slt\n        /* \"#utility.yul\":3866:3988   */\n      tag_154\n      jumpi\n        /* \"#utility.yul\":3907:3986   */\n      tag_155\n      tag_70\n      jump\t// in\n    tag_155:\n        /* \"#utility.yul\":3866:3988   */\n    tag_154:\n        /* \"#utility.yul\":4024:4030   */\n      dup2\n        /* \"#utility.yul\":4011:4031   */\n      calldataload\n        /* \"#utility.yul\":4049:4128   */\n      tag_156\n        /* \"#utility.yul\":4124:4127   */\n      dup5\n        /* \"#utility.yul\":4116:4122   */\n      dup3\n        /* \"#utility.yul\":4109:4113   */\n      0x20\n        /* \"#utility.yul\":4101:4107   */\n      dup7\n        /* \"#utility.yul\":4097:4114   */\n      add\n        /* \"#utility.yul\":4049:4128   */\n      tag_78\n      jump\t// in\n    tag_156:\n        /* \"#utility.yul\":4040:4128   */\n      swap2\n      pop\n        /* \"#utility.yul\":3856:4134   */\n      pop\n        /* \"#utility.yul\":3794:4134   */\n      swap3\n      swap2\n      pop\n      pop\n      jump\t// out\n        /* \"#utility.yul\":4140:4217   */\n    tag_80:\n        /* \"#utility.yul\":4177:4184   */\n      0x00\n        /* \"#utility.yul\":4206:4211   */\n      dup2\n        /* \"#utility.yul\":4195:4211   */\n      swap1\n      pop\n        /* \"#utility.yul\":4140:4217   */\n      swap2\n      swap1\n      pop\n      jump\t// out\n        /* \"#utility.yul\":4223:4345   */\n    tag_81:\n        /* \"#utility.yul\":4296:4320   */\n      tag_159\n        /* \"#utility.yul\":4314:4319   */\n      dup2\n        /* \"#utility.yul\":4296:4320   */\n      tag_80\n      jump\t// in\n    tag_159:\n        /* \"#utility.yul\":4289:4294   */\n      dup2\n        /* \"#utility.yul\":4286:4321   */\n      eq\n        /* \"#utility.yul\":4276:4339   */\n      tag_160\n      jumpi\n        /* \"#utility.yul\":4335:4336   */\n      0x00\n        /* \"#utility.yul\":4332:4333   */\n      dup1\n        /* \"#utility.yul\":4325:4337   */\n      revert\n        /* \"#utility.yul\":4276:4339   */\n    tag_160:\n        /* \"#utility.yul\":4223:4345   */\n      pop\n      jump\t// out\n        /* \"#utility.yul\":4351:4490   */\n    tag_82:\n        /* \"#utility.yul\":4397:4402   */\n      0x00\n        /* \"#utility.yul\":4435:4441   */\n      dup2\n        /* \"#utility.yul\":4422:4442   */\n      calldataload\n        /* \"#utility.yul\":4413:4442   */\n      swap1\n      pop\n        /* \"#utility.yul\":4451:4484   */\n      tag_162\n        /* \"#utility.yul\":4478:4483   */\n      dup2\n        /* \"#utility.yul\":4451:4484   */\n      tag_81\n      jump\t// in\n    tag_162:\n        /* \"#utility.yul\":4351:4490   */\n      swap3\n      swap2\n      pop\n      pop\n      jump\t// out\n        /* \"#utility.yul\":4496:5150   */\n    tag_21:\n        /* \"#utility.yul\":4574:4580   */\n      0x00\n        /* \"#utility.yul\":4582:4588   */\n      dup1\n        /* \"#utility.yul\":4631:4633   */\n      0x40\n        /* \"#utility.yul\":4619:4628   */\n      dup4\n        /* \"#utility.yul\":4610:4617   */\n      dup6\n        /* \"#utility.yul\":4606:4629   */\n      sub\n        /* \"#utility.yul\":4602:4634   */\n      slt\n        /* \"#utility.yul\":4599:4718   */\n      iszero\n      tag_164\n      jumpi\n        /* \"#utility.yul\":4637:4716   */\n      tag_165\n      tag_66\n      jump\t// in\n    tag_165:\n        /* \"#utility.yul\":4599:4718   */\n    tag_164:\n        /* \"#utility.yul\":4785:4786   */\n      0x00\n        /* \"#utility.yul\":4774:4783   */\n      dup4\n        /* \"#utility.yul\":4770:4787   */\n      add\n        /* \"#utility.yul\":4757:4788   */\n      calldataload\n        /* \"#utility.yul\":4815:4833   */\n      0xffffffffffffffff\n        /* \"#utility.yul\":4807:4813   */\n      dup2\n        /* \"#utility.yul\":4804:4834   */\n      gt\n        /* \"#utility.yul\":4801:4918   */\n      iszero\n      tag_166\n      jumpi\n        /* \"#utility.yul\":4837:4916   */\n      tag_167\n      tag_67\n      jump\t// in\n    tag_167:\n        /* \"#utility.yul\":4801:4918   */\n    tag_166:\n        /* \"#utility.yul\":4942:5005   */\n      tag_168\n        /* \"#utility.yul\":4997:5004   */\n      dup6\n        /* \"#utility.yul\":4988:4994   */\n      dup3\n        /* \"#utility.yul\":4977:4986   */\n      dup7\n        /* \"#utility.yul\":4973:4995   */\n      add\n        /* \"#utility.yul\":4942:5005   */\n      tag_79\n      jump\t// in\n    tag_168:\n        /* \"#utility.yul\":4932:5005   */\n      swap3\n      pop\n        /* \"#utility.yul\":4728:5015   */\n      pop\n        /* \"#utility.yul\":5054:5056   */\n      0x20\n        /* \"#utility.yul\":5080:5133   */\n      tag_169\n        /* \"#utility.yul\":5125:5132   */\n      dup6\n        /* \"#utility.yul\":5116:5122   */\n      dup3\n        /* \"#utility.yul\":5105:5114   */\n      dup7\n        /* \"#utility.yul\":5101:5123   */\n      add\n        /* \"#utility.yul\":5080:5133   */\n      tag_82\n      jump\t// in\n    tag_169:\n        /* \"#utility.yul\":5070:5133   */\n      swap2\n      pop\n        /* \"#utility.yul\":5025:5143   */\n      pop\n        /* \"#utility.yul\":4496:5150   */\n      swap3\n      pop\n      swap3\n      swap1\n      pop\n      jump\t// out\n        /* \"#utility.yul\":5156:5485   */\n    tag_25:\n        /* \"#utility.yul\":5215:5221   */\n      0x00\n        /* \"#utility.yul\":5264:5266   */\n      0x20\n        /* \"#utility.yul\":5252:5261   */\n      dup3\n        /* \"#utility.yul\":5243:5250   */\n      dup5\n        /* \"#utility.yul\":5239:5262   */\n      sub\n        /* \"#utility.yul\":5235:5267   */\n      slt\n        /* \"#utility.yul\":5232:5351   */\n      iszero\n      tag_171\n      jumpi\n        /* \"#utility.yul\":5270:5349   */\n      tag_172\n      tag_66\n      jump\t// in\n    tag_172:\n        /* \"#utility.yul\":5232:5351   */\n    tag_171:\n        /* \"#utility.yul\":5390:5391   */\n      0x00\n        /* \"#utility.yul\":5415:5468   */\n      tag_173\n        /* \"#utility.yul\":5460:5467   */\n      dup5\n        /* \"#utility.yul\":5451:5457   */\n      dup3\n        /* \"#utility.yul\":5440:5449   */\n      dup6\n        /* \"#utility.yul\":5436:5458   */\n      add\n        /* \"#utility.yul\":5415:5468   */\n      tag_82\n      jump\t// in\n    tag_173:\n        /* \"#utility.yul\":5405:5468   */\n      swap2\n      pop\n        /* \"#utility.yul\":5361:5478   */\n      pop\n        /* \"#utility.yul\":5156:5485   */\n      swap3\n      swap2\n      pop\n      pop\n      jump\t// out\n        /* \"#utility.yul\":5491:5590   */\n    tag_83:\n        /* \"#utility.yul\":5543:5549   */\n      0x00\n        /* \"#utility.yul\":5577:5582   */\n      dup2\n        /* \"#utility.yul\":5571:5583   */\n      mload\n        /* \"#utility.yul\":5561:5583   */\n      swap1\n      pop\n        /* \"#utility.yul\":5491:5590   */\n      swap2\n      swap1\n      pop\n      jump\t// out\n        /* \"#utility.yul\":5596:5765   */\n    tag_84:\n        /* \"#utility.yul\":5680:5691   */\n      0x00\n        /* \"#utility.yul\":5714:5720   */\n      dup3\n        /* \"#utility.yul\":5709:5712   */\n      dup3\n        /* \"#utility.yul\":5702:5721   */\n      mstore\n        /* \"#utility.yul\":5754:5758   */\n      0x20\n        /* \"#utility.yul\":5749:5752   */\n      dup3\n        /* \"#utility.yul\":5745:5759   */\n      add\n        /* \"#utility.yul\":5730:5759   */\n      swap1\n      pop\n        /* \"#utility.yul\":5596:5765   */\n      swap3\n      swap2\n      pop\n      pop\n      jump\t// out\n        /* \"#utility.yul\":5771:5910   */\n    tag_85:\n        /* \"#utility.yul\":5860:5866   */\n      dup3\n        /* \"#utility.yul\":5855:5858   */\n      dup2\n        /* \"#utility.yul\":5850:5853   */\n      dup4\n        /* \"#utility.yul\":5844:5867   */\n      mcopy\n        /* \"#utility.yul\":5901:5902   */\n      0x00\n        /* \"#utility.yul\":5892:5898   */\n      dup4\n        /* \"#utility.yul\":5887:5890   */\n      dup4\n        /* \"#utility.yul\":5883:5899   */\n      add\n        /* \"#utility.yul\":5876:5903   */\n      mstore\n        /* \"#utility.yul\":5771:5910   */\n      pop\n      pop\n      pop\n      jump\t// out\n        /* \"#utility.yul\":5916:6293   */\n    tag_86:\n        /* \"#utility.yul\":6004:6007   */\n      0x00\n        /* \"#utility.yul\":6032:6071   */\n      tag_178\n        /* \"#utility.yul\":6065:6070   */\n      dup3\n        /* \"#utility.yul\":6032:6071   */\n      tag_83\n      jump\t// in\n    tag_178:\n        /* \"#utility.yul\":6087:6158   */\n      tag_179\n        /* \"#utility.yul\":6151:6157   */\n      dup2\n        /* \"#utility.yul\":6146:6149   */\n      dup6\n        /* \"#utility.yul\":6087:6158   */\n      tag_84\n      jump\t// in\n    tag_179:\n        /* \"#utility.yul\":6080:6158   */\n      swap4\n      pop\n        /* \"#utility.yul\":6167:6232   */\n      tag_180\n        /* \"#utility.yul\":6225:6231   */\n      dup2\n        /* \"#utility.yul\":6220:6223   */\n      dup6\n        /* \"#utility.yul\":6213:6217   */\n      0x20\n        /* \"#utility.yul\":6206:6211   */\n      dup7\n        /* \"#utility.yul\":6202:6218   */\n      add\n        /* \"#utility.yul\":6167:6232   */\n      tag_85\n      jump\t// in\n    tag_180:\n        /* \"#utility.yul\":6257:6286   */\n      tag_181\n        /* \"#utility.yul\":6279:6285   */\n      dup2\n        /* \"#utility.yul\":6257:6286   */\n      tag_72\n      jump\t// in\n    tag_181:\n        /* \"#utility.yul\":6252:6255   */\n      dup5\n        /* \"#utility.yul\":6248:6287   */\n      add\n        /* \"#utility.yul\":6241:6287   */\n      swap2\n      pop\n        /* \"#utility.yul\":6008:6293   */\n      pop\n        /* \"#utility.yul\":5916:6293   */\n      swap3\n      swap2\n      pop\n      pop\n      jump\t// out\n        /* \"#utility.yul\":6299:6417   */\n    tag_87:\n        /* \"#utility.yul\":6386:6410   */\n      tag_183\n        /* \"#utility.yul\":6404:6409   */\n      dup2\n        /* \"#utility.yul\":6386:6410   */\n      tag_80\n      jump\t// in\n    tag_183:\n        /* \"#utility.yul\":6381:6384   */\n      dup3\n        /* \"#utility.yul\":6374:6411   */\n      mstore\n        /* \"#utility.yul\":6299:6417   */\n      pop\n      pop\n      jump\t// out\n        /* \"#utility.yul\":6423:6846   */\n    tag_30:\n        /* \"#utility.yul\":6564:6568   */\n      0x00\n        /* \"#utility.yul\":6602:6604   */\n      0x40\n        /* \"#utility.yul\":6591:6600   */\n      dup3\n        /* \"#utility.yul\":6587:6605   */\n      add\n        /* \"#utility.yul\":6579:6605   */\n      swap1\n      pop\n        /* \"#utility.yul\":6651:6660   */\n      dup2\n        /* \"#utility.yul\":6645:6649   */\n      dup2\n        /* \"#utility.yul\":6641:6661   */\n      sub\n        /* \"#utility.yul\":6637:6638   */\n      0x00\n        /* \"#utility.yul\":6626:6635   */\n      dup4\n        /* \"#utility.yul\":6622:6639   */\n      add\n        /* \"#utility.yul\":6615:6662   */\n      mstore\n        /* \"#utility.yul\":6679:6757   */\n      tag_185\n        /* \"#utility.yul\":6752:6756   */\n      dup2\n        /* \"#utility.yul\":6743:6749   */\n      dup6\n        /* \"#utility.yul\":6679:6757   */\n      tag_86\n      jump\t// in\n    tag_185:\n        /* \"#utility.yul\":6671:6757   */\n      swap1\n      pop\n        /* \"#utility.yul\":6767:6839   */\n      tag_186\n        /* \"#utility.yul\":6835:6837   */\n      0x20\n        /* \"#utility.yul\":6824:6833   */\n      dup4\n        /* \"#utility.yul\":6820:6838   */\n      add\n        /* \"#utility.yul\":6811:6817   */\n      dup5\n        /* \"#utility.yul\":6767:6839   */\n      tag_87\n      jump\t// in\n    tag_186:\n        /* \"#utility.yul\":6423:6846   */\n      swap4\n      swap3\n      pop\n      pop\n      pop\n      jump\t// out\n        /* \"#utility.yul\":6852:7074   */\n    tag_34:\n        /* \"#utility.yul\":6945:6949   */\n      0x00\n        /* \"#utility.yul\":6983:6985   */\n      0x20\n        /* \"#utility.yul\":6972:6981   */\n      dup3\n        /* \"#utility.yul\":6968:6986   */\n      add\n        /* \"#utility.yul\":6960:6986   */\n      swap1\n      pop\n        /* \"#utility.yul\":6996:7067   */\n      tag_188\n        /* \"#utility.yul\":7064:7065   */\n      0x00\n        /* \"#utility.yul\":7053:7062   */\n      dup4\n        /* \"#utility.yul\":7049:7066   */\n      add\n        /* \"#utility.yul\":7040:7046   */\n      dup5\n        /* \"#utility.yul\":6996:7067   */\n      tag_87\n      jump\t// in\n    tag_188:\n        /* \"#utility.yul\":6852:7074   */\n      swap3\n      swap2\n      pop\n      pop\n      jump\t// out\n        /* \"#utility.yul\":7080:7206   */\n    tag_88:\n        /* \"#utility.yul\":7117:7124   */\n      0x00\n        /* \"#utility.yul\":7157:7199   */\n      0xffffffffffffffffffffffffffffffffffffffff\n        /* \"#utility.yul\":7150:7155   */\n      dup3\n        /* \"#utility.yul\":7146:7200   */\n      and\n        /* \"#utility.yul\":7135:7200   */\n      swap1\n      pop\n        /* \"#utility.yul\":7080:7206   */\n      swap2\n      swap1\n      pop\n      jump\t// out\n        /* \"#utility.yul\":7212:7308   */\n    tag_89:\n        /* \"#utility.yul\":7249:7256   */\n      0x00\n        /* \"#utility.yul\":7278:7302   */\n      tag_191\n        /* \"#utility.yul\":7296:7301   */\n      dup3\n        /* \"#utility.yul\":7278:7302   */\n      tag_88\n      jump\t// in\n    tag_191:\n        /* \"#utility.yul\":7267:7302   */\n      swap1\n      pop\n        /* \"#utility.yul\":7212:7308   */\n      swap2\n      swap1\n      pop\n      jump\t// out\n        /* \"#utility.yul\":7314:7432   */\n    tag_90:\n        /* \"#utility.yul\":7401:7425   */\n      tag_193\n        /* \"#utility.yul\":7419:7424   */\n      dup2\n        /* \"#utility.yul\":7401:7425   */\n      tag_89\n      jump\t// in\n    tag_193:\n        /* \"#utility.yul\":7396:7399   */\n      dup3\n        /* \"#utility.yul\":7389:7426   */\n      mstore\n        /* \"#utility.yul\":7314:7432   */\n      pop\n      pop\n      jump\t// out\n        /* \"#utility.yul\":7438:7660   */\n    tag_38:\n        /* \"#utility.yul\":7531:7535   */\n      0x00\n        /* \"#utility.yul\":7569:7571   */\n      0x20\n        /* \"#utility.yul\":7558:7567   */\n      dup3\n        /* \"#utility.yul\":7554:7572   */\n      add\n        /* \"#utility.yul\":7546:7572   */\n      swap1\n      pop\n        /* \"#utility.yul\":7582:7653   */\n      tag_195\n        /* \"#utility.yul\":7650:7651   */\n      0x00\n        /* \"#utility.yul\":7639:7648   */\n      dup4\n        /* \"#utility.yul\":7635:7652   */\n      add\n        /* \"#utility.yul\":7626:7632   */\n      dup5\n        /* \"#utility.yul\":7582:7653   */\n      tag_90\n      jump\t// in\n    tag_195:\n        /* \"#utility.yul\":7438:7660   */\n      swap3\n      swap2\n      pop\n      pop\n      jump\t// out\n        /* \"#utility.yul\":7666:7846   */\n    tag_91:\n        /* \"#utility.yul\":7714:7791   */\n      0x4e487b7100000000000000000000000000000000000000000000000000000000\n        /* \"#utility.yul\":7711:7712   */\n      0x00\n        /* \"#utility.yul\":7704:7792   */\n      mstore\n        /* \"#utility.yul\":7811:7815   */\n      0x22\n        /* \"#utility.yul\":7808:7809   */\n      0x04\n        /* \"#utility.yul\":7801:7816   */\n      mstore\n        /* \"#utility.yul\":7835:7839   */\n      0x24\n        /* \"#utility.yul\":7832:7833   */\n      0x00\n        /* \"#utility.yul\":7825:7840   */\n      revert\n        /* \"#utility.yul\":7852:8172   */\n    tag_56:\n        /* \"#utility.yul\":7896:7902   */\n      0x00\n        /* \"#utility.yul\":7933:7934   */\n      0x02\n        /* \"#utility.yul\":7927:7931   */\n      dup3\n        /* \"#utility.yul\":7923:7935   */\n      div\n        /* \"#utility.yul\":7913:7935   */\n      swap1\n      pop\n        /* \"#utility.yul\":7980:7981   */\n      0x01\n        /* \"#utility.yul\":7974:7978   */\n      dup3\n        /* \"#utility.yul\":7970:7982   */\n      and\n        /* \"#utility.yul\":8001:8019   */\n      dup1\n        /* \"#utility.yul\":7991:8072   */\n      tag_198\n      jumpi\n        /* \"#utility.yul\":8057:8061   */\n      0x7f\n        /* \"#utility.yul\":8049:8055   */\n      dup3\n        /* \"#utility.yul\":8045:8062   */\n      and\n        /* \"#utility.yul\":8035:8062   */\n      swap2\n      pop\n        /* \"#utility.yul\":7991:8072   */\n    tag_198:\n        /* \"#utility.yul\":8119:8121   */\n      0x20\n        /* \"#utility.yul\":8111:8117   */\n      dup3\n        /* \"#utility.yul\":8108:8122   */\n      lt\n        /* \"#utility.yul\":8088:8106   */\n      dup2\n        /* \"#utility.yul\":8085:8123   */\n      sub\n        /* \"#utility.yul\":8082:8166   */\n      tag_199\n      jumpi\n        /* \"#utility.yul\":8138:8156   */\n      tag_200\n      tag_91\n      jump\t// in\n    tag_200:\n        /* \"#utility.yul\":8082:8166   */\n    tag_199:\n        /* \"#utility.yul\":7903:8172   */\n      pop\n        /* \"#utility.yul\":7852:8172   */\n      swap2\n      swap1\n      pop\n      jump\t// out\n        /* \"#utility.yul\":8178:8319   */\n    tag_92:\n        /* \"#utility.yul\":8227:8231   */\n      0x00\n        /* \"#utility.yul\":8250:8253   */\n      dup2\n        /* \"#utility.yul\":8242:8253   */\n      swap1\n      pop\n        /* \"#utility.yul\":8273:8276   */\n      dup2\n        /* \"#utility.yul\":8270:8271   */\n      0x00\n        /* \"#utility.yul\":8263:8277   */\n      mstore\n        /* \"#utility.yul\":8307:8311   */\n      0x20\n        /* \"#utility.yul\":8304:8305   */\n      0x00\n        /* \"#utility.yul\":8294:8312   */\n      keccak256\n        /* \"#utility.yul\":8286:8312   */\n      swap1\n      pop\n        /* \"#utility.yul\":8178:8319   */\n      swap2\n      swap1\n      pop\n      jump\t// out\n        /* \"#utility.yul\":8325:8418   */\n    tag_93:\n        /* \"#utility.yul\":8362:8368   */\n      0x00\n        /* \"#utility.yul\":8409:8411   */\n      0x20\n        /* \"#utility.yul\":8404:8406   */\n      0x1f\n        /* \"#utility.yul\":8397:8402   */\n      dup4\n        /* \"#utility.yul\":8393:8407   */\n      add\n        /* \"#utility.yul\":8389:8412   */\n      div\n        /* \"#utility.yul\":8379:8412   */\n      swap1\n      pop\n        /* \"#utility.yul\":8325:8418   */\n      swap2\n      swap1\n      pop\n      jump\t// out\n        /* \"#utility.yul\":8424:8531   */\n    tag_94:\n        /* \"#utility.yul\":8468:8476   */\n      0x00\n        /* \"#utility.yul\":8518:8523   */\n      dup3\n        /* \"#utility.yul\":8512:8516   */\n      dup3\n        /* \"#utility.yul\":8508:8524   */\n      shl\n        /* \"#utility.yul\":8487:8524   */\n      swap1\n      pop\n        /* \"#utility.yul\":8424:8531   */\n      swap3\n      swap2\n      pop\n      pop\n      jump\t// out\n        /* \"#utility.yul\":8537:8930   */\n    tag_95:\n        /* \"#utility.yul\":8606:8612   */\n      0x00\n        /* \"#utility.yul\":8656:8657   */\n      0x08\n        /* \"#utility.yul\":8644:8654   */\n      dup4\n        /* \"#utility.yul\":8640:8658   */\n      mul\n        /* \"#utility.yul\":8679:8776   */\n      tag_205\n        /* \"#utility.yul\":8709:8775   */\n      0xffffffffffffffffffffffffffffffffffffffffffffffffffffffffffffffff\n        /* \"#utility.yul\":8698:8707   */\n      dup3\n        /* \"#utility.yul\":8679:8776   */\n      tag_94\n      jump\t// in\n    tag_205:\n        /* \"#utility.yul\":8797:8836   */\n      tag_206\n        /* \"#utility.yul\":8827:8835   */\n      dup7\n        /* \"#utility.yul\":8816:8825   */\n      dup4\n        /* \"#utility.yul\":8797:8836   */\n      tag_94\n      jump\t// in\n    tag_206:\n        /* \"#utility.yul\":8785:8836   */\n      swap6\n      pop\n        /* \"#utility.yul\":8869:8873   */\n      dup1\n        /* \"#utility.yul\":8865:8874   */\n      not\n        /* \"#utility.yul\":8858:8863   */\n      dup5\n        /* \"#utility.yul\":8854:8875   */\n      and\n        /* \"#utility.yul\":8845:8875   */\n      swap4\n      pop\n        /* \"#utility.yul\":8918:8922   */\n      dup1\n        /* \"#utility.yul\":8908:8916   */\n      dup7\n        /* \"#utility.yul\":8904:8923   */\n      and\n        /* \"#utility.yul\":8897:8902   */\n      dup5\n        /* \"#utility.yul\":8894:8924   */\n      or\n        /* \"#utility.yul\":8884:8924   */\n      swap3\n      pop\n        /* \"#utility.yul\":8613:8930   */\n      pop\n      pop\n        /* \"#utility.yul\":8537:8930   */\n      swap4\n      swap3\n      pop\n      pop\n      pop\n      jump\t// out\n        /* \"#utility.yul\":8936:8996   */\n    tag_96:\n        /* \"#utility.yul\":8964:8967   */\n      0x00\n        /* \"#utility.yul\":8985:8990   */\n      dup2\n        /* \"#utility.yul\":8978:8990   */\n      swap1\n      pop\n        /* \"#utility.yul\":8936:8996   */\n      swap2\n      swap1\n      pop\n      jump\t// out\n        /* \"#utility.yul\":9002:9144   */\n    tag_97:\n        /* \"#utility.yul\":9052:9061   */\n      0x00\n        /* \"#utility.yul\":9085:9138   */\n      tag_209\n        /* \"#utility.yul\":9103:9137   */\n      tag_210\n        /* \"#utility.yul\":9112:9136   */\n      tag_211\n        /* \"#utility.yul\":9130:9135   */\n      dup5\n        /* \"#utility.yul\":9112:9136   */\n      tag_80\n      jump\t// in\n    tag_211:\n        /* \"#utility.yul\":9103:9137   */\n      tag_96\n      jump\t// in\n    tag_210:\n        /* \"#utility.yul\":9085:9138   */\n      tag_80\n      jump\t// in\n    tag_209:\n        /* \"#utility.yul\":9072:9138   */\n      swap1\n      pop\n        /* \"#utility.yul\":9002:9144   */\n      swap2\n      swap1\n      pop\n      jump\t// out\n        /* \"#utility.yul\":9150:9225   */\n    tag_98:\n        /* \"#utility.yul\":9193:9196   */\n      0x00\n        /* \"#utility.yul\":9214:9219   */\n      dup2\n        /* \"#utility.yul\":9207:9219   */\n      swap1\n      pop\n        /* \"#utility.yul\":9150:9225   */\n      swap2\n      swap1\n      pop\n      jump\t// out\n        /* \"#utility.yul\":9231:9500   */\n    tag_99:\n        /* \"#utility.yul\":9341:9380   */\n      tag_214\n        /* \"#utility.yul\":9372:9379   */\n      dup4\n        /* \"#utility.yul\":9341:9380   */\n      tag_97\n      jump\t// in\n    tag_214:\n        /* \"#utility.yul\":9402:9493   */\n      tag_215\n        /* \"#utility.yul\":9451:9492   */\n      tag_216\n        /* \"#utility.yul\":9475:9491   */\n      dup3\n        /* \"#utility.yul\":9451:9492   */\n      tag_98\n      jump\t// in\n    tag_216:\n        /* \"#utility.yul\":9443:9449   */\n      dup5\n        /* \"#utility.yul\":9436:9440   */\n      dup5\n        /* \"#utility.yul\":9430:9441   */\n      sload\n        /* \"#utility.yul\":9402:9493   */\n      tag_95\n      jump\t// in\n    tag_215:\n        /* \"#utility.yul\":9396:9400   */\n      dup3\n        /* \"#utility.yul\":9389:9494   */\n      sstore\n        /* \"#utility.yul\":9307:9500   */\n      pop\n        /* \"#utility.yul\":9231:9500   */\n      pop\n      pop\n      pop\n      jump\t// out\n        /* \"#utility.yul\":9506:9579   */\n    tag_100:\n        /* \"#utility.yul\":9551:9554   */\n      0x00\n        /* \"#utility.yul\":9506:9579   */\n      swap1\n      jump\t// out\n        /* \"#utility.yul\":9585:9774   */\n    tag_101:\n        /* \"#utility.yul\":9662:9694   */\n      tag_219\n      tag_100\n      jump\t// in\n    tag_219:\n        /* \"#utility.yul\":9703:9768   */\n      tag_220\n        /* \"#utility.yul\":9761:9767   */\n      dup2\n        /* \"#utility.yul\":9753:9759   */\n      dup5\n        /* \"#utility.yul\":9747:9751   */\n      dup5\n        /* \"#utility.yul\":9703:9768   */\n      tag_99\n      jump\t// in\n    tag_220:\n        /* \"#utility.yul\":9638:9774   */\n      pop\n        /* \"#utility.yul\":9585:9774   */\n      pop\n      pop\n      jump\t// out\n        /* \"#utility.yul\":9780:9966   */\n    tag_102:\n        /* \"#utility.yul\":9840:9960   */\n    tag_222:\n        /* \"#utility.yul\":9857:9860   */\n      dup2\n        /* \"#utility.yul\":9850:9855   */\n      dup2\n        /* \"#utility.yul\":9847:9861   */\n      lt\n        /* \"#utility.yul\":9840:9960   */\n      iszero\n      tag_224\n      jumpi\n        /* \"#utility.yul\":9911:9950   */\n      tag_225\n        /* \"#utility.yul\":9948:9949   */\n      0x00\n        /* \"#utility.yul\":9941:9946   */\n      dup3\n        /* \"#utility.yul\":9911:9950   */\n      tag_101\n      jump\t// in\n    tag_225:\n        /* \"#utility.yul\":9884:9885   */\n      0x01\n        /* \"#utility.yul\":9877:9882   */\n      dup2\n        /* \"#utility.yul\":9873:9886   */\n      add\n        /* \"#utility.yul\":9864:9886   */\n      swap1\n      pop\n        /* \"#utility.yul\":9840:9960   */\n      jump(tag_222)\n    tag_224:\n        /* \"#utility.yul\":9780:9966   */\n      pop\n      pop\n      jump\t// out\n        /* \"#utility.yul\":9972:10515   */\n    tag_103:\n        /* \"#utility.yul\":10073:10075   */\n      0x1f\n        /* \"#utility.yul\":10068:10071   */\n      dup3\n        /* \"#utility.yul\":10065:10076   */\n      gt\n        /* \"#utility.yul\":10062:10508   */\n      iszero\n      tag_227\n      jumpi\n        /* \"#utility.yul\":10107:10145   */\n      tag_228\n        /* \"#utility.yul\":10139:10144   */\n      dup2\n        /* \"#utility.yul\":10107:10145   */\n      tag_92\n      jump\t// in\n    tag_228:\n        /* \"#utility.yul\":10191:10220   */\n      tag_229\n        /* \"#utility.yul\":10209:10219   */\n      dup5\n        /* \"#utility.yul\":10191:10220   */\n      tag_93\n      jump\t// in\n    tag_229:\n        /* \"#utility.yul\":10181:10189   */\n      dup2\n        /* \"#utility.yul\":10177:10221   */\n      add\n        /* \"#utility.yul\":10374:10376   */\n      0x20\n        /* \"#utility.yul\":10362:10372   */\n      dup6\n        /* \"#utility.yul\":10359:10377   */\n      lt\n        /* \"#utility.yul\":10356:10405   */\n      iszero\n      tag_230\n      jumpi\n        /* \"#utility.yul\":10395:10403   */\n      dup2\n        /* \"#utility.yul\":10380:10403   */\n      swap1\n      pop\n        /* \"#utility.yul\":10356:10405   */\n    tag_230:\n        /* \"#utility.yul\":10418:10498   */\n      tag_231\n        /* \"#utility.yul\":10474:10496   */\n      tag_232\n        /* \"#utility.yul\":10492:10495   */\n      dup6\n        /* \"#utility.yul\":10474:10496   */\n      tag_93\n      jump\t// in\n    tag_232:\n        /* \"#utility.yul\":10464:10472   */\n      dup4\n        /* \"#utility.yul\":10460:10497   */\n      add\n        /* \"#utility.yul\":10447:10458   */\n      dup3\n        /* \"#utility.yul\":10418:10498   */\n      tag_102\n      jump\t// in\n    tag_231:\n        /* \"#utility.yul\":10077:10508   */\n      pop\n      pop\n        /* \"#utility.yul\":10062:10508   */\n    tag_227:\n        /* \"#utility.yul\":9972:10515   */\n      pop\n      pop\n      pop\n      jump\t// out\n        /* \"#utility.yul\":10521:10638   */\n    tag_104:\n        /* \"#utility.yul\":10575:10583   */\n      0x00\n        /* \"#utility.yul\":10625:10630   */\n      dup3\n        /* \"#utility.yul\":10619:10623   */\n      dup3\n        /* \"#utility.yul\":10615:10631   */\n      shr\n        /* \"#utility.yul\":10594:10631   */\n      swap1\n      pop\n        /* \"#utility.yul\":10521:10638   */\n      swap3\n      swap2\n      pop\n      pop\n      jump\t// out\n        /* \"#utility.yul\":10644:10813   */\n    tag_105:\n        /* \"#utility.yul\":10688:10694   */\n      0x00\n        /* \"#utility.yul\":10721:10772   */\n      tag_235\n        /* \"#utility.yul\":10769:10770   */\n      0x00\n        /* \"#utility.yul\":10765:10771   */\n      not\n        /* \"#utility.yul\":10757:10762   */\n      dup5\n        /* \"#utility.yul\":10754:10755   */\n      0x08\n        /* \"#utility.yul\":10750:10763   */\n      mul\n        /* \"#utility.yul\":10721:10772   */\n      tag_104\n      jump\t// in\n    tag_235:\n        /* \"#utility.yul\":10717:10773   */\n      not\n        /* \"#utility.yul\":10802:10806   */\n      dup1\n        /* \"#utility.yul\":10796:10800   */\n      dup4\n        /* \"#utility.yul\":10792:10807   */\n      and\n        /* \"#utility.yul\":10782:10807   */\n      swap2\n      pop\n        /* \"#utility.yul\":10695:10813   */\n      pop\n        /* \"#utility.yul\":10644:10813   */\n      swap3\n      swap2\n      pop\n      pop\n      jump\t// out\n        /* \"#utility.yul\":10818:11113   */\n    tag_106:\n        /* \"#utility.yul\":10894:10898   */\n      0x00\n        /* \"#utility.yul\":11040:11069   */\n      tag_237\n        /* \"#utility.yul\":11065:11068   */\n      dup4\n        /* \"#utility.yul\":11059:11063   */\n      dup4\n        /* \"#utility.yul\":11040:11069   */\n      tag_105\n      jump\t// in\n    tag_237:\n        /* \"#utility.yul\":11032:11069   */\n      swap2\n      pop\n        /* \"#utility.yul\":11102:11105   */\n      dup3\n        /* \"#utility.yul\":11099:11100   */\n      0x02\n        /* \"#utility.yul\":11095:11106   */\n      mul\n        /* \"#utility.yul\":11089:11093   */\n      dup3\n        /* \"#utility.yul\":11086:11107   */\n      or\n        /* \"#utility.yul\":11078:11107   */\n      swap1\n      pop\n        /* \"#utility.yul\":10818:11113   */\n      swap3\n      swap2\n      pop\n      pop\n      jump\t// out\n        /* \"#utility.yul\":11118:12513   */\n    tag_50:\n        /* \"#utility.yul\":11235:11272   */\n      tag_239\n        /* \"#utility.yul\":11268:11271   */\n      dup3\n        /* \"#utility.yul\":11235:11272   */\n      tag_83\n      jump\t// in\n    tag_239:\n        /* \"#utility.yul\":11337:11355   */\n      0xffffffffffffffff\n        /* \"#utility.yul\":11329:11335   */\n      dup2\n        /* \"#utility.yul\":11326:11356   */\n      gt\n        /* \"#utility.yul\":11323:11379   */\n      iszero\n      tag_240\n      jumpi\n        /* \"#utility.yul\":11359:11377   */\n      tag_241\n      tag_73\n      jump\t// in\n    tag_241:\n        /* \"#utility.yul\":11323:11379   */\n    tag_240:\n        /* \"#utility.yul\":11403:11441   */\n      tag_242\n        /* \"#utility.yul\":11435:11439   */\n      dup3\n        /* \"#utility.yul\":11429:11440   */\n      sload\n        /* \"#utility.yul\":11403:11441   */\n      tag_56\n      jump\t// in\n    tag_242:\n        /* \"#utility.yul\":11488:11555   */\n      tag_243\n        /* \"#utility.yul\":11548:11554   */\n      dup3\n        /* \"#utility.yul\":11540:11546   */\n      dup3\n        /* \"#utility.yul\":11534:11538   */\n      dup6\n        /* \"#utility.yul\":11488:11555   */\n      tag_103\n      jump\t// in\n    tag_243:\n        /* \"#utility.yul\":11582:11583   */\n      0x00\n        /* \"#utility.yul\":11606:11610   */\n      0x20\n        /* \"#utility.yul\":11593:11610   */\n      swap1\n      pop\n        /* \"#utility.yul\":11638:11640   */\n      0x1f\n        /* \"#utility.yul\":11630:11636   */\n      dup4\n        /* \"#utility.yul\":11627:11641   */\n      gt\n        /* \"#utility.yul\":11655:11656   */\n      0x01\n        /* \"#utility.yul\":11650:12268   */\n      dup2\n      eq\n      tag_245\n      jumpi\n        /* \"#utility.yul\":12312:12313   */\n      0x00\n        /* \"#utility.yul\":12329:12335   */\n      dup5\n        /* \"#utility.yul\":12326:12403   */\n      iszero\n      tag_246\n      jumpi\n        /* \"#utility.yul\":12378:12387   */\n      dup3\n        /* \"#utility.yul\":12373:12376   */\n      dup8\n        /* \"#utility.yul\":12369:12388   */\n      add\n        /* \"#utility.yul\":12363:12389   */\n      mload\n        /* \"#utility.yul\":12354:12389   */\n      swap1\n      pop\n        /* \"#utility.yul\":12326:12403   */\n    tag_246:\n        /* \"#utility.yul\":12429:12496   */\n      tag_247\n        /* \"#utility.yul\":12489:12495   */\n      dup6\n        /* \"#utility.yul\":12482:12487   */\n      dup3\n        /* \"#utility.yul\":12429:12496   */\n      tag_106\n      jump\t// in\n    tag_247:\n        /* \"#utility.yul\":12423:12427   */\n      dup7\n        /* \"#utility.yul\":12416:12497   */\n      sstore\n        /* \"#utility.yul\":12285:12507   */\n      pop\n        /* \"#utility.yul\":11620:12507   */\n      jump(tag_244)\n        /* \"#utility.yul\":11650:12268   */\n    tag_245:\n        /* \"#utility.yul\":11702:11706   */\n      0x1f\n        /* \"#utility.yul\":11698:11707   */\n      not\n        /* \"#utility.yul\":11690:11696   */\n      dup5\n        /* \"#utility.yul\":11686:11708   */\n      and\n        /* \"#utility.yul\":11736:11773   */\n      tag_248\n        /* \"#utility.yul\":11768:11772   */\n      dup7\n        /* \"#utility.yul\":11736:11773   */\n      tag_92\n      jump\t// in\n    tag_248:\n        /* \"#utility.yul\":11795:11796   */\n      0x00\n        /* \"#utility.yul\":11809:12017   */\n    tag_249:\n        /* \"#utility.yul\":11823:11830   */\n      dup3\n        /* \"#utility.yul\":11820:11821   */\n      dup2\n        /* \"#utility.yul\":11817:11831   */\n      lt\n        /* \"#utility.yul\":11809:12017   */\n      iszero\n      tag_251\n      jumpi\n        /* \"#utility.yul\":11902:11911   */\n      dup5\n        /* \"#utility.yul\":11897:11900   */\n      dup10\n        /* \"#utility.yul\":11893:11912   */\n      add\n        /* \"#utility.yul\":11887:11913   */\n      mload\n        /* \"#utility.yul\":11879:11885   */\n      dup3\n        /* \"#utility.yul\":11872:11914   */\n      sstore\n        /* \"#utility.yul\":11953:11954   */\n      0x01\n        /* \"#utility.yul\":11945:11951   */\n      dup3\n        /* \"#utility.yul\":11941:11955   */\n      add\n        /* \"#utility.yul\":11931:11955   */\n      swap2\n      pop\n        /* \"#utility.yul\":12000:12002   */\n      0x20\n        /* \"#utility.yul\":11989:11998   */\n      dup6\n        /* \"#utility.yul\":11985:12003   */\n      add\n        /* \"#utility.yul\":11972:12003   */\n      swap5\n      pop\n        /* \"#utility.yul\":11846:11850   */\n      0x20\n        /* \"#utility.yul\":11843:11844   */\n      dup2\n        /* \"#utility.yul\":11839:11851   */\n      add\n        /* \"#utility.yul\":11834:11851   */\n      swap1\n      pop\n        /* \"#utility.yul\":11809:12017   */\n      jump(tag_249)\n    tag_251:\n        /* \"#utility.yul\":12045:12051   */\n      dup7\n        /* \"#utility.yul\":12036:12043   */\n      dup4\n        /* \"#utility.yul\":12033:12052   */\n      lt\n        /* \"#utility.yul\":12030:12209   */\n      iszero\n      tag_252\n      jumpi\n        /* \"#utility.yul\":12103:12112   */\n      dup5\n        /* \"#utility.yul\":12098:12101   */\n      dup10\n        /* \"#utility.yul\":12094:12113   */\n      add\n        /* \"#utility.yul\":12088:12114   */\n      mload\n        /* \"#utility.yul\":12146:12194   */\n      tag_253\n        /* \"#utility.yul\":12188:12192   */\n      0x1f\n        /* \"#utility.yul\":12180:12186   */\n      dup10\n        /* \"#utility.yul\":12176:12193   */\n      and\n        /* \"#utility.yul\":12165:12174   */\n      dup3\n        /* \"#utility.yul\":12146:12194   */\n      tag_105\n      jump\t// in\n    tag_253:\n        /* \"#utility.yul\":12138:12144   */\n      dup4\n        /* \"#utility.yul\":12131:12195   */\n      sstore\n        /* \"#utility.yul\":12053:12209   */\n      pop\n        /* \"#utility.yul\":12030:12209   */\n    tag_252:\n        /* \"#utility.yul\":12255:12256   */\n      0x01\n        /* \"#utility.yul\":12251:12252   */\n      0x02\n        /* \"#utility.yul\":12243:12249   */\n      dup9\n        /* \"#utility.yul\":12239:12253   */\n      mul\n        /* \"#utility.yul\":12235:12257   */\n      add\n        /* \"#utility.yul\":12229:12233   */\n      dup9\n        /* \"#utility.yul\":12222:12258   */\n      sstore\n        /* \"#utility.yul\":11657:12268   */\n      pop\n      pop\n      pop\n        /* \"#utility.yul\":11620:12507   */\n    tag_244:\n      pop\n        /* \"#utility.yul\":11210:12513   */\n      pop\n      pop\n      pop\n        /* \"#utility.yul\":11118:12513   */\n      pop\n      pop\n      jump\t// out\n\n    auxdata: 0xa2646970667358221220317057d77f44021a76fc2665466dc9a0db4e17eb7aa49a1ddf786ae12eee145964736f6c634300081a0033\n}\n",
				"bytecode": {
					"linkReferences": {},
					"object": "6080604052348015600e575f80fd5b503360015f6101000a81548173ffffffffffffffffffffffffffffffffffffffff021916908373ffffffffffffffffffffffffffffffffffffffff1602179055505f600160146101000a81548160ff021916908360028111156071576070607a565b5b021790555060a7565b7f4e487b71000000000000000000000000000000000000000000000000000000005f52602160045260245ffd5b610b7e806100b45f395ff3fe608060405234801561000f575f80fd5b506004361061007b575f3560e01c80633fb5c1cb116100595780633fb5c1cb146100d557806377ec2b55146100f15780638381f58a146101105780638da5cb5b1461012e5761007b565b8063200d2ed21461007f5780632e49d78b1461009d5780632fda437e146100b9575b5f80fd5b61008761014c565b6040516100949190610505565b60405180910390f35b6100b760048036038101906100b29190610552565b61015f565b005b6100d360048036038101906100ce91906106ec565b610249565b005b6100ef60048036038101906100ea9190610746565b61030b565b005b6100f96103d1565b6040516101079291906107e0565b60405180910390f35b610118610468565b604051610125919061080e565b60405180910390f35b61013661046d565b6040516101439190610866565b60405180910390f35b600160149054906101000a900460ff1681565b60015f9054906101000a900473ffffffffffffffffffffffffffffffffffffffff1673ffffffffffffffffffffffffffffffffffffffff163373ffffffffffffffffffffffffffffffffffffffff16146101e5576040517f82b4290000000000000000000000000000000000000000000000000000000000815260040160405180910390fd5b80600160146101000a81548160ff0219169083600281111561020a57610209610492565b5b02179055507fafa725e7f44cadb687a7043853fa1a7e7b8f0da74ce87ec546e9420f04da8c1e8160405161023e9190610505565b60405180910390a150565b60015f9054906101000a900473ffffffffffffffffffffffffffffffffffffffff1673ffffffffffffffffffffffffffffffffffffffff163373ffffffffffffffffffffffffffffffffffffffff16146102cf576040517f82b4290000000000000000000000000000000000000000000000000000000000815260040160405180910390fd5b60405180604001604052808381526020018281525060025f820151815f0190816102f99190610a79565b50602082015181600101559050505050565b60015f9054906101000a900473ffffffffffffffffffffffffffffffffffffffff1673ffffffffffffffffffffffffffffffffffffffff163373ffffffffffffffffffffffffffffffffffffffff1614610391576040517f82b4290000000000000000000000000000000000000000000000000000000000815260040160405180910390fd5b805f819055507f939f2783f4b99373bd9b6912aff8f7316ea141b98eb02e47c8a96bdae0d654b3816040516103c6919061080e565b60405180910390a150565b6002805f0180546103e1906108ac565b80601f016020809104026020016040519081016040528092919081815260200182805461040d906108ac565b80156104585780601f1061042f57610100808354040283529160200191610458565b820191905f5260205f20905b81548152906001019060200180831161043b57829003601f168201915b5050505050908060010154905082565b5f5481565b60015f9054906101000a900473ffffffffffffffffffffffffffffffffffffffff1681565b7f4e487b71000000000000000000000000000000000000000000000000000000005f52602160045260245ffd5b600381106104d0576104cf610492565b5b50565b5f8190506104e0826104bf565b919050565b5f6104ef826104d3565b9050919050565b6104ff816104e5565b82525050565b5f6020820190506105185f8301846104f6565b92915050565b5f604051905090565b5f80fd5b5f80fd5b6003811061053b575f80fd5b50565b5f8135905061054c8161052f565b92915050565b5f6020828403121561056757610566610527565b5b5f6105748482850161053e565b91505092915050565b5f80fd5b5f80fd5b5f601f19601f8301169050919050565b7f4e487b71000000000000000000000000000000000000000000000000000000005f52604160045260245ffd5b6105cb82610585565b810181811067ffffffffffffffff821117156105ea576105e9610595565b5b80604052505050565b5f6105fc61051e565b905061060882826105c2565b919050565b5f67ffffffffffffffff82111561062757610626610595565b5b61063082610585565b9050602081019050919050565b828183375f83830152505050565b5f61065d6106588461060d565b6105f3565b90508281526020810184848401111561067957610678610581565b5b61068484828561063d565b509392505050565b5f82601f8301126106a05761069f61057d565b5b81356106b084826020860161064b565b91505092915050565b5f819050919050565b6106cb816106b9565b81146106d5575f80fd5b50565b5f813590506106e6816106c2565b92915050565b5f806040838503121561070257610701610527565b5b5f83013567ffffffffffffffff81111561071f5761071e61052b565b5b61072b8582860161068c565b925050602061073c858286016106d8565b9150509250929050565b5f6020828403121561075b5761075a610527565b5b5f610768848285016106d8565b91505092915050565b5f81519050919050565b5f82825260208201905092915050565b8281835e5f83830152505050565b5f6107a382610771565b6107ad818561077b565b93506107bd81856020860161078b565b6107c681610585565b840191505092915050565b6107da816106b9565b82525050565b5f6040820190508181035f8301526107f88185610799565b905061080760208301846107d1565b9392505050565b5f6020820190506108215f8301846107d1565b92915050565b5f73ffffffffffffffffffffffffffffffffffffffff82169050919050565b5f61085082610827565b9050919050565b61086081610846565b82525050565b5f6020820190506108795f830184610857565b92915050565b7f4e487b71000000000000000000000000000000000000000000000000000000005f52602260045260245ffd5b5f60028204905060018216806108c357607f821691505b6020821081036108d6576108d561087f565b5b50919050565b5f819050815f5260205f209050919050565b5f6020601f8301049050919050565b5f82821b905092915050565b5f600883026109387fffffffffffffffffffffffffffffffffffffffffffffffffffffffffffffffff826108fd565b61094286836108fd565b95508019841693508086168417925050509392505050565b5f819050919050565b5f61097d610978610973846106b9565b61095a565b6106b9565b9050919050565b5f819050919050565b61099683610963565b6109aa6109a282610984565b848454610909565b825550505050565b5f90565b6109be6109b2565b6109c981848461098d565b505050565b5b818110156109ec576109e15f826109b6565b6001810190506109cf565b5050565b601f821115610a3157610a02816108dc565b610a0b846108ee565b81016020851015610a1a578190505b610a2e610a26856108ee565b8301826109ce565b50505b505050565b5f82821c905092915050565b5f610a515f1984600802610a36565b1980831691505092915050565b5f610a698383610a42565b9150826002028217905092915050565b610a8282610771565b67ffffffffffffffff811115610a9b57610a9a610595565b5b610aa582546108ac565b610ab08282856109f0565b5f60209050601f831160018114610ae1575f8415610acf578287015190505b610ad98582610a5e565b865550610b40565b601f198416610aef866108dc565b5f5b82811015610b1657848901518255600182019150602085019450602081019050610af1565b86831015610b335784890151610b2f601f891682610a42565b8355505b6001600288020188555050505b50505050505056fea2646970667358221220317057d77f44021a76fc2665466dc9a0db4e17eb7aa49a1ddf786ae12eee145964736f6c634300081a0033",
					"opcodes": "PUSH1 0x80 PUSH1 0x40 MSTORE CALLVALUE DUP1 ISZERO PUSH1 0xE JUMPI PUSH0 DUP1 REVERT JUMPDEST POP CALLER PUSH1 0x1 PUSH0 PUSH2 0x100 EXP DUP2 SLOAD DUP2 PUSH20 0xFFFFFFFFFFFFFFFFFFFFFFFFFFFFFFFFFFFFFFFF MUL NOT AND SWAP1 DUP4 PUSH20 0xFFFFFFFFFFFFFFFFFFFFFFFFFFFFFFFFFFFFFFFF AND MUL OR SWAP1 SSTORE POP PUSH0 PUSH1 0x1 PUSH1 0x14 PUSH2 0x100 EXP DUP2 SLOAD DUP2 PUSH1 0xFF MUL NOT AND SWAP1 DUP4 PUSH1 0x2 DUP2 GT ISZERO PUSH1 0x71 JUMPI PUSH1 0x70 PUSH1 0x7A JUMP JUMPDEST JUMPDEST MUL OR SWAP1 SSTORE POP PUSH1 0xA7 JUMP JUMPDEST PUSH32 0x4E487B7100000000000000000000000000000000000000000000000000000000 PUSH0 MSTORE PUSH1 0x21 PUSH1 0x4 MSTORE PUSH1 0x24 PUSH0 REVERT JUMPDEST PUSH2 0xB7E DUP1 PUSH2 0xB4 PUSH0 CODECOPY PUSH0 RETURN INVALID PUSH1 0x80 PUSH1 0x40 MSTORE CALLVALUE DUP1 ISZERO PUSH2 0xF JUMPI PUSH0 DUP1 REVERT JUMPDEST POP PUSH1 0x4 CALLDATASIZE LT PUSH2 0x7B JUMPI PUSH0 CALLDATALOAD PUSH1 0xE0 SHR DUP1 PUSH4 0x3FB5C1CB GT PUSH2 0x59 JUMPI DUP1 PUSH4 0x3FB5C1CB EQ PUSH2 0xD5 JUMPI DUP1 PUSH4 0x77EC2B55 EQ PUSH2 0xF1 JUMPI DUP1 PUSH4 0x8381F58A EQ PUSH2 0x110 JUMPI DUP1 PUSH4 0x8DA5CB5B EQ PUSH2 0x12E JUMPI PUSH2 0x7B JUMP JUMPDEST DUP1 PUSH4 0x200D2ED2 EQ PUSH2 0x7F JUMPI DUP1 PUSH4 0x2E49D78B EQ PUSH2 0x9D JUMPI DUP1 PUSH4 0x2FDA437E EQ PUSH2 0xB9 JUMPI JUMPDEST PUSH0 DUP1 REVERT JUMPDEST PUSH2 0x87 PUSH2 0x14C JUMP JUMPDEST PUSH1 0x40 MLOAD PUSH2 0x94 SWAP2 SWAP1 PUSH2 0x505 JUMP JUMPDEST PUSH1 0x40 MLOAD DUP1 SWAP2 SUB SWAP1 RETURN JUMPDEST PUSH2 0xB7 PUSH1 0x4 DUP1 CALLDATASIZE SUB DUP2 ADD SWAP1 PUSH2 0xB2 SWAP2 SWAP1 PUSH2 0x552 JUMP JUMPDEST PUSH2 0x15F JUMP JUMPDEST STOP JUMPDEST PUSH2 0xD3 PUSH1 0x4 DUP1 CALLDATASIZE SUB DUP2 ADD SWAP1 PUSH2 0xCE SWAP2 SWAP1 PUSH2 0x6EC JUMP JUMPDEST PUSH2 0x249 JUMP JUMPDEST STOP JUMPDEST PUSH2 0xEF PUSH1 0x4 DUP1 CALLDATASIZE SUB DUP2 ADD SWAP1 PUSH2 0xEA SWAP2 SWAP1 PUSH2 0x746 JUMP JUMPDEST PUSH2 0x30B JUMP JUMPDEST STOP JUMPDEST PUSH2 0xF9 PUSH2 0x3D1 JUMP JUMPDEST PUSH1 0x40 MLOAD PUSH2 0x107 SWAP3 SWAP2 SWAP1 PUSH2 0x7E0 JUMP JUMPDEST PUSH1 0x40 MLOAD DUP1 SWAP2 SUB SWAP1 RETURN JUMPDEST PUSH2 0x118 PUSH2 0x468 JUMP JUMPDEST PUSH1 0x40 MLOAD PUSH2 0x125 SWAP2 SWAP1 PUSH2 0x80E JUMP JUMPDEST PUSH1 0x40 MLOAD DUP1 SWAP2 SUB SWAP1 RETURN JUMPDEST PUSH2 0x136 PUSH2 0x46D JUMP JUMPDEST PUSH1 0x40 MLOAD PUSH2 0x143 SWAP2 SWAP1 PUSH2 0x866 JUMP JUMPDEST PUSH1 0x40 MLOAD DUP1 SWAP2 SUB SWAP1 RETURN JUMPDEST PUSH1 0x1 PUSH1 0x14 SWAP1 SLOAD SWAP1 PUSH2 0x100 EXP SWAP1 DIV PUSH1 0xFF AND DUP2 JUMP JUMPDEST PUSH1 0x1 PUSH0 SWAP1 SLOAD SWAP1 PUSH2 0x100 EXP SWAP1 DIV PUSH20 0xFFFFFFFFFFFFFFFFFFFFFFFFFFFFFFFFFFFFFFFF AND PUSH20 0xFFFFFFFFFFFFFFFFFFFFFFFFFFFFFFFFFFFFFFFF AND CALLER PUSH20 0xFFFFFFFFFFFFFFFFFFFFFFFFFFFFFFFFFFFFFFFF AND EQ PUSH2 0x1E5 JUMPI PUSH1 0x40 MLOAD PUSH32 0x82B4290000000000000000000000000000000000000000000000000000000000 DUP2 MSTORE PUSH1 0x4 ADD PUSH1 0x40 MLOAD DUP1 SWAP2 SUB SWAP1 REVERT JUMPDEST DUP1 PUSH1 0x1 PUSH1 0x14 PUSH2 0x100 EXP DUP2 SLOAD DUP2 PUSH1 0xFF MUL NOT AND SWAP1 DUP4 PUSH1 0x2 DUP2 GT ISZERO PUSH2 0x20A JUMPI PUSH2 0x209 PUSH2 0x492 JUMP JUMPDEST JUMPDEST MUL OR SWAP1 SSTORE POP PUSH32 0xAFA725E7F44CADB687A7043853FA1A7E7B8F0DA74CE87EC546E9420F04DA8C1E DUP2 PUSH1 0x40 MLOAD PUSH2 0x23E SWAP2 SWAP1 PUSH2 0x505 JUMP JUMPDEST PUSH1 0x40 MLOAD DUP1 SWAP2 SUB SWAP1 LOG1 POP JUMP JUMPDEST PUSH1 0x1 PUSH0 SWAP1 SLOAD SWAP1 PUSH2 0x100 EXP SWAP1 DIV PUSH20 0xFFFFFFFFFFFFFFFFFFFFFFFFFFFFFFFFFFFFFFFF AND PUSH20 0xFFFFFFFFFFFFFFFFFFFFFFFFFFFFFFFFFFFFFFFF AND CALLER PUSH20 0xFFFFFFFFFFFFFFFFFFFFFFFFFFFFFFFFFFFFFFFF AND EQ PUSH2 0x2CF JUMPI PUSH1 0x40 MLOAD PUSH32 0x82B4290000000000000000000000000000000000000000000000000000000000 DUP2 MSTORE PUSH1 0x4 ADD PUSH1 0x40 MLOAD DUP1 SWAP2 SUB SWAP1 REVERT JUMPDEST PUSH1 0x40 MLOAD DUP1 PUSH1 0x40 ADD PUSH1 0x40 MSTORE DUP1 DUP4 DUP2 MSTORE PUSH1 0x20 ADD DUP3 DUP2 MSTORE POP PUSH1 0x2 PUSH0 DUP3 ADD MLOAD DUP2 PUSH0 ADD SWAP1 DUP2 PUSH2 0x2F9 SWAP2 SWAP1 PUSH2 0xA79 JUMP JUMPDEST POP PUSH1 0x20 DUP3 ADD MLOAD DUP2 PUSH1 0x1 ADD SSTORE SWAP1 POP POP POP POP JUMP JUMPDEST PUSH1 0x1 PUSH0 SWAP1 SLOAD SWAP1 PUSH2 0x100 EXP SWAP1 DIV PUSH20 0xFFFFFFFFFFFFFFFFFFFFFFFFFFFFFFFFFFFFFFFF AND PUSH20 0xFFFFFFFFFFFFFFFFFFFFFFFFFFFFFFFFFFFFFFFF AND CALLER PUSH20 0xFFFFFFFFFFFFFFFFFFFFFFFFFFFFFFFFFFFFFFFF AND EQ PUSH2 0x391 JUMPI PUSH1 0x40 MLOAD PUSH32 0x82B4290000000000000000000000000000000000000000000000000000000000 DUP2 MSTORE PUSH1 0x4 ADD PUSH1 0x40 MLOAD DUP1 SWAP2 SUB SWAP1 REVERT JUMPDEST DUP1 PUSH0 DUP2 SWAP1 SSTORE POP PUSH32 0x939F2783F4B99373BD9B6912AFF8F7316EA141B98EB02E47C8A96BDAE0D654B3 DUP2 PUSH1 0x40 MLOAD PUSH2 0x3C6 SWAP2 SWAP1 PUSH2 0x80E JUMP JUMPDEST PUSH1 0x40 MLOAD DUP1 SWAP2 SUB SWAP1 LOG1 POP JUMP JUMPDEST PUSH1 0x2 DUP1 PUSH0 ADD DUP1 SLOAD PUSH2 0x3E1 SWAP1 PUSH2 0x8AC JUMP JUMPDEST DUP1 PUSH1 0x1F ADD PUSH1 0x20 DUP1 SWAP2 DIV MUL PUSH1 0x20 ADD PUSH1 0x40 MLOAD SWAP1 DUP2 ADD PUSH1 0x40 MSTORE DUP1 SWAP3 SWAP2 SWAP1 DUP2 DUP2 MSTORE PUSH1 0x20 ADD DUP3 DUP1 SLOAD PUSH2 0x40D SWAP1 PUSH2 0x8AC JUMP JUMPDEST DUP1 ISZERO PUSH2 0x458 JUMPI DUP1 PUSH1 0x1F LT PUSH2 0x42F JUMPI PUSH2 0x100 DUP1 DUP4 SLOAD DIV MUL DUP4 MSTORE SWAP2 PUSH1 0x20 ADD SWAP2 PUSH2 0x458 JUMP JUMPDEST DUP3 ADD SWAP2 SWAP1 PUSH0 MSTORE PUSH1 0x20 PUSH0 KECCAK256 SWAP1 JUMPDEST DUP2 SLOAD DUP2 MSTORE SWAP1 PUSH1 0x1 ADD SWAP1 PUSH1 0x20 ADD DUP1 DUP4 GT PUSH2 0x43B JUMPI DUP3 SWAP1 SUB PUSH1 0x1F AND DUP3 ADD SWAP2 JUMPDEST POP POP POP POP POP SWAP1 DUP1 PUSH1 0x1 ADD SLOAD SWAP1 POP DUP3 JUMP JUMPDEST PUSH0 SLOAD DUP2 JUMP JUMPDEST PUSH1 0x1 PUSH0 SWAP1 SLOAD SWAP1 PUSH2 0x100 EXP SWAP1 DIV PUSH20 0xFFFFFFFFFFFFFFFFFFFFFFFFFFFFFFFFFFFFFFFF AND DUP2 JUMP JUMPDEST PUSH32 0x4E487B7100000000000000000000000000000000000000000000000000000000 PUSH0 MSTORE PUSH1 0x21 PUSH1 0x4 MSTORE PUSH1 0x24 PUSH0 REVERT JUMPDEST PUSH1 0x3 DUP2 LT PUSH2 0x4D0 JUMPI PUSH2 0x4CF PUSH2 0x492 JUMP JUMPDEST JUMPDEST POP JUMP JUMPDEST PUSH0 DUP2 SWAP1 POP PUSH2 0x4E0 DUP3 PUSH2 0x4BF JUMP JUMPDEST SWAP2 SWAP1 POP JUMP JUMPDEST PUSH0 PUSH2 0x4EF DUP3 PUSH2 0x4D3 JUMP JUMPDEST SWAP1 POP SWAP2 SWAP1 POP JUMP JUMPDEST PUSH2 0x4FF DUP2 PUSH2 0x4E5 JUMP JUMPDEST DUP3 MSTORE POP POP JUMP JUMPDEST PUSH0 PUSH1 0x20 DUP3 ADD SWAP1 POP PUSH2 0x518 PUSH0 DUP4 ADD DUP5 PUSH2 0x4F6 JUMP JUMPDEST SWAP3 SWAP2 POP POP JUMP JUMPDEST PUSH0 PUSH1 0x40 MLOAD SWAP1 POP SWAP1 JUMP JUMPDEST PUSH0 DUP1 REVERT JUMPDEST PUSH0 DUP1 REVERT JUMPDEST PUSH1 0x3 DUP2 LT PUSH2 0x53B JUMPI PUSH0 DUP1 REVERT JUMPDEST POP JUMP JUMPDEST PUSH0 DUP2 CALLDATALOAD SWAP1 POP PUSH2 0x54C DUP2 PUSH2 0x52F JUMP JUMPDEST SWAP3 SWAP2 POP POP JUMP JUMPDEST PUSH0 PUSH1 0x20 DUP3 DUP5 SUB SLT ISZERO PUSH2 0x567 JUMPI PUSH2 0x566 PUSH2 0x527 JUMP JUMPDEST JUMPDEST PUSH0 PUSH2 0x574 DUP5 DUP3 DUP6 ADD PUSH2 0x53E JUMP JUMPDEST SWAP2 POP POP SWAP3 SWAP2 POP POP JUMP JUMPDEST PUSH0 DUP1 REVERT JUMPDEST PUSH0 DUP1 REVERT JUMPDEST PUSH0 PUSH1 0x1F NOT PUSH1 0x1F DUP4 ADD AND SWAP1 POP SWAP2 SWAP1 POP JUMP JUMPDEST PUSH32 0x4E487B7100000000000000000000000000000000000000000000000000000000 PUSH0 MSTORE PUSH1 0x41 PUSH1 0x4 MSTORE PUSH1 0x24 PUSH0 REVERT JUMPDEST PUSH2 0x5CB DUP3 PUSH2 0x585 JUMP JUMPDEST DUP2 ADD DUP2 DUP2 LT PUSH8 0xFFFFFFFFFFFFFFFF DUP3 GT OR ISZERO PUSH2 0x5EA JUMPI PUSH2 0x5E9 PUSH2 0x595 JUMP JUMPDEST JUMPDEST DUP1 PUSH1 0x40 MSTORE POP POP POP JUMP JUMPDEST PUSH0 PUSH2 0x5FC PUSH2 0x51E JUMP JUMPDEST SWAP1 POP PUSH2 0x608 DUP3 DUP3 PUSH2 0x5C2 JUMP JUMPDEST SWAP2 SWAP1 POP JUMP JUMPDEST PUSH0 PUSH8 0xFFFFFFFFFFFFFFFF DUP3 GT ISZERO PUSH2 0x627 JUMPI PUSH2 0x626 PUSH2 0x595 JUMP JUMPDEST JUMPDEST PUSH2 0x630 DUP3 PUSH2 0x585 JUMP JUMPDEST SWAP1 POP PUSH1 0x20 DUP2 ADD SWAP1 POP SWAP2 SWAP1 POP JUMP JUMPDEST DUP3 DUP2 DUP4 CALLDATACOPY PUSH0 DUP4 DUP4 ADD MSTORE POP POP POP JUMP JUMPDEST PUSH0 PUSH2 0x65D PUSH2 0x658 DUP5 PUSH2 0x60D JUMP JUMPDEST PUSH2 0x5F3 JUMP JUMPDEST SWAP1 POP DUP3 DUP2 MSTORE PUSH1 0x20 DUP2 ADD DUP5 DUP5 DUP5 ADD GT ISZERO PUSH2 0x679 JUMPI PUSH2 0x678 PUSH2 0x581 JUMP JUMPDEST JUMPDEST PUSH2 0x684 DUP5 DUP3 DUP6 PUSH2 0x63D JUMP JUMPDEST POP SWAP4 SWAP3 POP POP POP JUMP JUMPDEST PUSH0 DUP3 PUSH1 0x1F DUP4 ADD SLT PUSH2 0x6A0 JUMPI PUSH2 0x69F PUSH2 0x57D JUMP JUMPDEST JUMPDEST DUP2 CALLDATALOAD PUSH2 0x6B0 DUP5 DUP3 PUSH1 0x20 DUP7 ADD PUSH2 0x64B JUMP JUMPDEST SWAP2 POP POP SWAP3 SWAP2 POP POP JUMP JUMPDEST PUSH0 DUP2 SWAP1 POP SWAP2 SWAP1 POP JUMP JUMPDEST PUSH2 0x6CB DUP2 PUSH2 0x6B9 JUMP JUMPDEST DUP2 EQ PUSH2 0x6D5 JUMPI PUSH0 DUP1 REVERT JUMPDEST POP JUMP JUMPDEST PUSH0 DUP2 CALLDATALOAD SWAP1 POP PUSH2 0x6E6 DUP2 PUSH2 0x6C2 JUMP JUMPDEST SWAP3 SWAP2 POP POP JUMP JUMPDEST PUSH0 DUP1 PUSH1 0x40 DUP4 DUP6 SUB SLT ISZERO PUSH2 0x702 JUMPI PUSH2 0x701 PUSH2 0x527 JUMP JUMPDEST JUMPDEST PUSH0 DUP4 ADD CALLDATALOAD PUSH8 0xFFFFFFFFFFFFFFFF DUP2 GT ISZERO PUSH2 0x71F JUMPI PUSH2 0x71E PUSH2 0x52B JUMP JUMPDEST JUMPDEST PUSH2 0x72B DUP6 DUP3 DUP7 ADD PUSH2 0x68C JUMP JUMPDEST SWAP3 POP POP PUSH1 0x20 PUSH2 0x73C DUP6 DUP3 DUP7 ADD PUSH2 0x6D8 JUMP JUMPDEST SWAP2 POP POP SWAP3 POP SWAP3 SWAP1 POP JUMP JUMPDEST PUSH0 PUSH1 0x20 DUP3 DUP5 SUB SLT ISZERO PUSH2 0x75B JUMPI PUSH2 0x75A PUSH2 0x527 JUMP JUMPDEST JUMPDEST PUSH0 PUSH2 0x768 DUP5 DUP3 DUP6 ADD PUSH2 0x6D8 JUMP JUMPDEST SWAP2 POP POP SWAP3 SWAP2 POP POP JUMP JUMPDEST PUSH0 DUP2 MLOAD SWAP1 POP SWAP2 SWAP1 POP JUMP JUMPDEST PUSH0 DUP3 DUP3 MSTORE PUSH1 0x20 DUP3 ADD SWAP1 POP SWAP3 SWAP2 POP POP JUMP JUMPDEST DUP3 DUP2 DUP4 MCOPY PUSH0 DUP4 DUP4 ADD MSTORE POP POP POP JUMP JUMPDEST PUSH0 PUSH2 0x7A3 DUP3 PUSH2 0x771 JUMP JUMPDEST PUSH2 0x7AD DUP2 DUP6 PUSH2 0x77B JUMP JUMPDEST SWAP4 POP PUSH2 0x7BD DUP2 DUP6 PUSH1 0x20 DUP7 ADD PUSH2 0x78B JUMP JUMPDEST PUSH2 0x7C6 DUP2 PUSH2 0x585 JUMP JUMPDEST DUP5 ADD SWAP2 POP POP SWAP3 SWAP2 POP POP JUMP JUMPDEST PUSH2 0x7DA DUP2 PUSH2 0x6B9 JUMP JUMPDEST DUP3 MSTORE POP POP JUMP JUMPDEST PUSH0 PUSH1 0x40 DUP3 ADD SWAP1 POP DUP2 DUP2 SUB PUSH0 DUP4 ADD MSTORE PUSH2 0x7F8 DUP2 DUP6 PUSH2 0x799 JUMP JUMPDEST SWAP1 POP PUSH2 0x807 PUSH1 0x20 DUP4 ADD DUP5 PUSH2 0x7D1 JUMP JUMPDEST SWAP4 SWAP3 POP POP POP JUMP JUMPDEST PUSH0 PUSH1 0x20 DUP3 ADD SWAP1 POP PUSH2 0x821 PUSH0 DUP4 ADD DUP5 PUSH2 0x7D1 JUMP JUMPDEST SWAP3 SWAP2 POP POP JUMP JUMPDEST PUSH0 PUSH20 0xFFFFFFFFFFFFFFFFFFFFFFFFFFFFFFFFFFFFFFFF DUP3 AND SWAP1 POP SWAP2 SWAP1 POP JUMP JUMPDEST PUSH0 PUSH2 0x850 DUP3 PUSH2 0x827 JUMP JUMPDEST SWAP1 POP SWAP2 SWAP1 POP JUMP JUMPDEST PUSH2 0x860 DUP2 PUSH2 0x846 JUMP JUMPDEST DUP3 MSTORE POP POP JUMP JUMPDEST PUSH0 PUSH1 0x20 DUP3 ADD SWAP1 POP PUSH2 0x879 PUSH0 DUP4 ADD DUP5 PUSH2 0x857 JUMP JUMPDEST SWAP3 SWAP2 POP POP JUMP JUMPDEST PUSH32 0x4E487B7100000000000000000000000000000000000000000000000000000000 PUSH0 MSTORE PUSH1 0x22 PUSH1 0x4 MSTORE PUSH1 0x24 PUSH0 REVERT JUMPDEST PUSH0 PUSH1 0x2 DUP3 DIV SWAP1 POP PUSH1 0x1 DUP3 AND DUP1 PUSH2 0x8C3 JUMPI PUSH1 0x7F DUP3 AND SWAP2 POP JUMPDEST PUSH1 0x20 DUP3 LT DUP2 SUB PUSH2 0x8D6 JUMPI PUSH2 0x8D5 PUSH2 0x87F JUMP JUMPDEST JUMPDEST POP SWAP2 SWAP1 POP JUMP JUMPDEST PUSH0 DUP2 SWAP1 POP DUP2 PUSH0 MSTORE PUSH1 0x20 PUSH0 KECCAK256 SWAP1 POP SWAP2 SWAP1 POP JUMP JUMPDEST PUSH0 PUSH1 0x20 PUSH1 0x1F DUP4 ADD DIV SWAP1 POP SWAP2 SWAP1 POP JUMP JUMPDEST PUSH0 DUP3 DUP3 SHL SWAP1 POP SWAP3 SWAP2 POP POP JUMP JUMPDEST PUSH0 PUSH1 0x8 DUP4 MUL PUSH2 0x938 PUSH32 0xFFFFFFFFFFFFFFFFFFFFFFFFFFFFFFFFFFFFFFFFFFFFFFFFFFFFFFFFFFFFFFFF DUP3 PUSH2 0x8FD JUMP JUMPDEST PUSH2 0x942 DUP7 DUP4 PUSH2 0x8FD JUMP JUMPDEST SWAP6 POP DUP1 NOT DUP5 AND SWAP4 POP DUP1 DUP7 AND DUP5 OR SWAP3 POP POP POP SWAP4 SWAP3 POP POP POP JUMP JUMPDEST PUSH0 DUP2 SWAP1 POP SWAP2 SWAP1 POP JUMP JUMPDEST PUSH0 PUSH2 0x97D PUSH2 0x978 PUSH2 0x973 DUP5 PUSH2 0x6B9 JUMP JUMPDEST PUSH2 0x95A JUMP JUMPDEST PUSH2 0x6B9 JUMP JUMPDEST SWAP1 POP SWAP2 SWAP1 POP JUMP JUMPDEST PUSH0 DUP2 SWAP1 POP SWAP2 SWAP1 POP JUMP JUMPDEST PUSH2 0x996 DUP4 PUSH2 0x963 JUMP JUMPDEST PUSH2 0x9AA PUSH2 0x9A2 DUP3 PUSH2 0x984 JUMP JUMPDEST DUP5 DUP5 SLOAD PUSH2 0x909 JUMP JUMPDEST DUP3 SSTORE POP POP POP POP JUMP JUMPDEST PUSH0 SWAP1 JUMP JUMPDEST PUSH2 0x9BE PUSH2 0x9B2 JUMP JUMPDEST PUSH2 0x9C9 DUP2 DUP5 DUP5 PUSH2 0x98D JUMP JUMPDEST POP POP POP JUMP JUMPDEST JUMPDEST DUP2 DUP2 LT ISZERO PUSH2 0x9EC JUMPI PUSH2 0x9E1 PUSH0 DUP3 PUSH2 0x9B6 JUMP JUMPDEST PUSH1 0x1 DUP2 ADD SWAP1 POP PUSH2 0x9CF JUMP JUMPDEST POP POP JUMP JUMPDEST PUSH1 0x1F DUP3 GT ISZERO PUSH2 0xA31 JUMPI PUSH2 0xA02 DUP2 PUSH2 0x8DC JUMP JUMPDEST PUSH2 0xA0B DUP5 PUSH2 0x8EE JUMP JUMPDEST DUP2 ADD PUSH1 0x20 DUP6 LT ISZERO PUSH2 0xA1A JUMPI DUP2 SWAP1 POP JUMPDEST PUSH2 0xA2E PUSH2 0xA26 DUP6 PUSH2 0x8EE JUMP JUMPDEST DUP4 ADD DUP3 PUSH2 0x9CE JUMP JUMPDEST POP POP JUMPDEST POP POP POP JUMP JUMPDEST PUSH0 DUP3 DUP3 SHR SWAP1 POP SWAP3 SWAP2 POP POP JUMP JUMPDEST PUSH0 PUSH2 0xA51 PUSH0 NOT DUP5 PUSH1 0x8 MUL PUSH2 0xA36 JUMP JUMPDEST NOT DUP1 DUP4 AND SWAP2 POP POP SWAP3 SWAP2 POP POP JUMP JUMPDEST PUSH0 PUSH2 0xA69 DUP4 DUP4 PUSH2 0xA42 JUMP JUMPDEST SWAP2 POP DUP3 PUSH1 0x2 MUL DUP3 OR SWAP1 POP SWAP3 SWAP2 POP POP JUMP JUMPDEST PUSH2 0xA82 DUP3 PUSH2 0x771 JUMP JUMPDEST PUSH8 0xFFFFFFFFFFFFFFFF DUP2 GT ISZERO PUSH2 0xA9B JUMPI PUSH2 0xA9A PUSH2 0x595 JUMP JUMPDEST JUMPDEST PUSH2 0xAA5 DUP3 SLOAD PUSH2 0x8AC JUMP JUMPDEST PUSH2 0xAB0 DUP3 DUP3 DUP6 PUSH2 0x9F0 JUMP JUMPDEST PUSH0 PUSH1 0x20 SWAP1 POP PUSH1 0x1F DUP4 GT PUSH1 0x1 DUP2 EQ PUSH2 0xAE1 JUMPI PUSH0 DUP5 ISZERO PUSH2 0xACF JUMPI DUP3 DUP8 ADD MLOAD SWAP1 POP JUMPDEST PUSH2 0xAD9 DUP6 DUP3 PUSH2 0xA5E JUMP JUMPDEST DUP7 SSTORE POP PUSH2 0xB40 JUMP JUMPDEST PUSH1 0x1F NOT DUP5 AND PUSH2 0xAEF DUP7 PUSH2 0x8DC JUMP JUMPDEST PUSH0 JUMPDEST DUP3 DUP2 LT ISZERO PUSH2 0xB16 JUMPI DUP5 DUP10 ADD MLOAD DUP3 SSTORE PUSH1 0x1 DUP3 ADD SWAP2 POP PUSH1 0x20 DUP6 ADD SWAP5 POP PUSH1 0x20 DUP2 ADD SWAP1 POP PUSH2 0xAF1 JUMP JUMPDEST DUP7 DUP4 LT ISZERO PUSH2 0xB33 JUMPI DUP5 DUP10 ADD MLOAD PUSH2 0xB2F PUSH1 0x1F DUP10 AND DUP3 PUSH2 0xA42 JUMP JUMPDEST DUP4 SSTORE POP JUMPDEST PUSH1 0x1 PUSH1 0x2 DUP9 MUL ADD DUP9 SSTORE POP POP POP JUMPDEST POP POP POP POP POP POP JUMP INVALID LOG2 PUSH5 0x6970667358 0x22 SLT KECCAK256 BALANCE PUSH17 0x57D77F44021A76FC2665466DC9A0DB4E17 0xEB PUSH27 0xA49A1DDF786AE12EEE145964736F6C634300081A00330000000000 "
				},
				"gasEstimates": {
					"creation": {
						"codeDepositCost": "588400",
						"executionCost": "49230",
						"totalCost": "637630"
					},
					"external": {
						"number()": "2468",
						"owner()": "2574",
						"person()": "infinite",
						"setNumber(uint256)": "infinite",
						"setPerson(string,uint256)": "infinite",
						"setStatus(uint8)": "28170",
						"status()": "2606"
					}
				},
				"methodIdentifiers": {
					"number()": "8381f58a",
					"owner()": "8da5cb5b",
					"person()": "77ec2b55",
					"setNumber(uint256)": "3fb5c1cb",
					"setPerson(string,uint256)": "2fda437e",
					"setStatus(uint8)": "2e49d78b",
					"status()": "200d2ed2"
				}
			},
			"storageLayout": {
				"storage": [
					{
						"astId": 3,
						"contract": "contracts/SimpleContract.sol:SimpleContract",
						"label": "number",
						"offset": 0,
						"slot": "0",
						"type": "t_uint256"
					},
					{
						"astId": 5,
						"contract": "contracts/SimpleContract.sol:SimpleContract",
						"label": "owner",
						"offset": 0,
						"slot": "1",
						"type": "t_address"
					},
					{
						"astId": 12,
						"contract": "contracts/SimpleContract.sol:SimpleContract",
						"label": "status",
						"offset": 20,
						"slot": "1",
						"type": "t_enum(Status)9"
					},
					{
						"astId": 20,
						"contract": "contracts/SimpleContract.sol:SimpleContract",
						"label": "person",
						"offset": 0,
						"slot": "2",
						"type": "t_struct(Person)17_storage"
					}
				],
				"types": {
					"t_address": {
						"encoding": "inplace",
						"label": "address",
						"numberOfBytes": "20"
					},
					"t_enum(Status)9": {
						"encoding": "inplace",
						"label": "enum SimpleContract.Status",
						"numberOfBytes": "1"
					},
					"t_string_storage": {
						"encoding": "bytes",
						"label": "string",
						"numberOfBytes": "32"
					},
					"t_struct(Person)17_storage": {
						"encoding": "inplace",
						"label": "struct SimpleContract.Person",
						"members": [
							{
								"astId": 14,
								"contract": "contracts/SimpleContract.sol:SimpleContract",
								"label": "name",
								"offset": 0,
								"slot": "0",
								"type": "t_string_storage"
							},
							{
								"astId": 16,
								"contract": "contracts/SimpleContract.sol:SimpleContract",
								"label": "age",
								"offset": 0,
								"slot": "1",
								"type": "t_uint256"
							}
						],
						"numberOfBytes": "64"
					},
					"t_uint256": {
						"encoding": "inplace",
						"label": "uint256",
						"numberOfBytes": "32"
					}
				}
			},
			"userdoc": {
				"kind": "user",
				"methods": {},
				"version": 1
			}
		}
	}
}